{
  "address": "0x261D0FbD9313f1b075C54b2833afB1F74478C174",
  "abi": [
    {
      "inputs": [
        {
          "internalType": "address",
          "name": "_lzEndpoint",
          "type": "address"
        }
      ],
      "stateMutability": "nonpayable",
      "type": "constructor"
    },
    {
      "inputs": [],
      "name": "ECDSAInvalidSignature",
      "type": "error"
    },
    {
      "inputs": [
        {
          "internalType": "uint256",
          "name": "length",
          "type": "uint256"
        }
      ],
      "name": "ECDSAInvalidSignatureLength",
      "type": "error"
    },
    {
      "inputs": [
        {
          "internalType": "bytes32",
          "name": "s",
          "type": "bytes32"
        }
      ],
      "name": "ECDSAInvalidSignatureS",
      "type": "error"
    },
    {
      "inputs": [],
      "name": "EIP3009_AuthorizationExpired",
      "type": "error"
    },
    {
      "inputs": [],
      "name": "EIP3009_AuthorizationNotYetValid",
      "type": "error"
    },
    {
      "inputs": [],
      "name": "EIP3009_AuthorizationUsed",
      "type": "error"
    },
    {
      "inputs": [],
      "name": "EIP3009_InvalidSignature",
      "type": "error"
    },
    {
      "inputs": [],
      "name": "EIP3009_UnauthorizedCaller",
      "type": "error"
    },
    {
      "inputs": [
        {
          "internalType": "address",
          "name": "spender",
          "type": "address"
        },
        {
          "internalType": "uint256",
          "name": "allowance",
          "type": "uint256"
        },
        {
          "internalType": "uint256",
          "name": "needed",
          "type": "uint256"
        }
      ],
      "name": "ERC20InsufficientAllowance",
      "type": "error"
    },
    {
      "inputs": [
        {
          "internalType": "address",
          "name": "sender",
          "type": "address"
        },
        {
          "internalType": "uint256",
          "name": "balance",
          "type": "uint256"
        },
        {
          "internalType": "uint256",
          "name": "needed",
          "type": "uint256"
        }
      ],
      "name": "ERC20InsufficientBalance",
      "type": "error"
    },
    {
      "inputs": [
        {
          "internalType": "address",
          "name": "approver",
          "type": "address"
        }
      ],
      "name": "ERC20InvalidApprover",
      "type": "error"
    },
    {
      "inputs": [
        {
          "internalType": "address",
          "name": "receiver",
          "type": "address"
        }
      ],
      "name": "ERC20InvalidReceiver",
      "type": "error"
    },
    {
      "inputs": [
        {
          "internalType": "address",
          "name": "sender",
          "type": "address"
        }
      ],
      "name": "ERC20InvalidSender",
      "type": "error"
    },
    {
      "inputs": [
        {
          "internalType": "address",
          "name": "spender",
          "type": "address"
        }
      ],
      "name": "ERC20InvalidSpender",
      "type": "error"
    },
    {
      "inputs": [],
      "name": "InvalidDelegate",
      "type": "error"
    },
    {
      "inputs": [],
      "name": "InvalidEndpointCall",
      "type": "error"
    },
    {
      "inputs": [],
      "name": "InvalidInitialization",
      "type": "error"
    },
    {
      "inputs": [],
      "name": "InvalidLocalDecimals",
      "type": "error"
    },
    {
      "inputs": [
        {
          "internalType": "bytes",
          "name": "options",
          "type": "bytes"
        }
      ],
      "name": "InvalidOptions",
      "type": "error"
    },
    {
      "inputs": [],
      "name": "LzTokenUnavailable",
      "type": "error"
    },
    {
      "inputs": [
        {
          "internalType": "uint32",
          "name": "eid",
          "type": "uint32"
        }
      ],
      "name": "NoPeer",
      "type": "error"
    },
    {
      "inputs": [
        {
          "internalType": "uint256",
          "name": "msgValue",
          "type": "uint256"
        }
      ],
      "name": "NotEnoughNative",
      "type": "error"
    },
    {
      "inputs": [],
      "name": "NotInitializing",
      "type": "error"
    },
    {
      "inputs": [
        {
          "internalType": "address",
          "name": "addr",
          "type": "address"
        }
      ],
      "name": "OnlyEndpoint",
      "type": "error"
    },
    {
      "inputs": [
        {
          "internalType": "uint32",
          "name": "eid",
          "type": "uint32"
        },
        {
          "internalType": "bytes32",
          "name": "sender",
          "type": "bytes32"
        }
      ],
      "name": "OnlyPeer",
      "type": "error"
    },
    {
      "inputs": [],
      "name": "OnlySelf",
      "type": "error"
    },
    {
      "inputs": [
        {
          "internalType": "address",
          "name": "owner",
          "type": "address"
        }
      ],
      "name": "OwnableInvalidOwner",
      "type": "error"
    },
    {
      "inputs": [
        {
          "internalType": "address",
          "name": "account",
          "type": "address"
        }
      ],
      "name": "OwnableUnauthorizedAccount",
      "type": "error"
    },
    {
      "inputs": [
        {
          "internalType": "address",
          "name": "token",
          "type": "address"
        }
      ],
      "name": "SafeERC20FailedOperation",
      "type": "error"
    },
    {
      "inputs": [
        {
          "internalType": "bytes",
          "name": "result",
          "type": "bytes"
        }
      ],
      "name": "SimulationResult",
      "type": "error"
    },
    {
      "inputs": [
        {
          "internalType": "uint256",
          "name": "amountLD",
          "type": "uint256"
        },
        {
          "internalType": "uint256",
          "name": "minAmountLD",
          "type": "uint256"
        }
      ],
      "name": "SlippageExceeded",
      "type": "error"
    },
    {
      "anonymous": false,
      "inputs": [
        {
          "indexed": true,
          "internalType": "address",
          "name": "owner",
          "type": "address"
        },
        {
          "indexed": true,
          "internalType": "address",
          "name": "spender",
          "type": "address"
        },
        {
          "indexed": false,
          "internalType": "uint256",
          "name": "value",
          "type": "uint256"
        }
      ],
      "name": "Approval",
      "type": "event"
    },
    {
      "anonymous": false,
      "inputs": [
        {
          "indexed": true,
          "internalType": "address",
          "name": "authorizer",
          "type": "address"
        },
        {
          "indexed": true,
          "internalType": "bytes32",
          "name": "nonce",
          "type": "bytes32"
        }
      ],
      "name": "AuthorizationCanceled",
      "type": "event"
    },
    {
      "anonymous": false,
      "inputs": [
        {
          "indexed": true,
          "internalType": "address",
          "name": "authorizer",
          "type": "address"
        },
        {
          "indexed": true,
          "internalType": "bytes32",
          "name": "nonce",
          "type": "bytes32"
        }
      ],
      "name": "AuthorizationUsed",
      "type": "event"
    },
    {
      "anonymous": false,
      "inputs": [],
      "name": "EIP712DomainChanged",
      "type": "event"
    },
    {
      "anonymous": false,
      "inputs": [
        {
          "components": [
            {
              "internalType": "uint32",
              "name": "eid",
              "type": "uint32"
            },
            {
              "internalType": "uint16",
              "name": "msgType",
              "type": "uint16"
            },
            {
              "internalType": "bytes",
              "name": "options",
              "type": "bytes"
            }
          ],
          "indexed": false,
          "internalType": "struct EnforcedOptionParam[]",
          "name": "_enforcedOptions",
          "type": "tuple[]"
        }
      ],
      "name": "EnforcedOptionSet",
      "type": "event"
    },
    {
      "anonymous": false,
      "inputs": [
        {
          "indexed": false,
          "internalType": "uint64",
          "name": "version",
          "type": "uint64"
        }
      ],
      "name": "Initialized",
      "type": "event"
    },
    {
      "anonymous": false,
      "inputs": [
        {
          "indexed": false,
          "internalType": "address",
          "name": "inspector",
          "type": "address"
        }
      ],
      "name": "MsgInspectorSet",
      "type": "event"
    },
    {
      "anonymous": false,
      "inputs": [
        {
          "indexed": true,
          "internalType": "bytes32",
          "name": "guid",
          "type": "bytes32"
        },
        {
          "indexed": false,
          "internalType": "uint32",
          "name": "srcEid",
          "type": "uint32"
        },
        {
          "indexed": true,
          "internalType": "address",
          "name": "toAddress",
          "type": "address"
        },
        {
          "indexed": false,
          "internalType": "uint256",
          "name": "amountReceivedLD",
          "type": "uint256"
        }
      ],
      "name": "OFTReceived",
      "type": "event"
    },
    {
      "anonymous": false,
      "inputs": [
        {
          "indexed": true,
          "internalType": "bytes32",
          "name": "guid",
          "type": "bytes32"
        },
        {
          "indexed": false,
          "internalType": "uint32",
          "name": "dstEid",
          "type": "uint32"
        },
        {
          "indexed": true,
          "internalType": "address",
          "name": "fromAddress",
          "type": "address"
        },
        {
          "indexed": false,
          "internalType": "uint256",
          "name": "amountSentLD",
          "type": "uint256"
        },
        {
          "indexed": false,
          "internalType": "uint256",
          "name": "amountReceivedLD",
          "type": "uint256"
        }
      ],
      "name": "OFTSent",
      "type": "event"
    },
    {
      "anonymous": false,
      "inputs": [
        {
          "indexed": true,
          "internalType": "address",
          "name": "previousOwner",
          "type": "address"
        },
        {
          "indexed": true,
          "internalType": "address",
          "name": "newOwner",
          "type": "address"
        }
      ],
      "name": "OwnershipTransferred",
      "type": "event"
    },
    {
      "anonymous": false,
      "inputs": [
        {
          "indexed": false,
          "internalType": "uint32",
          "name": "eid",
          "type": "uint32"
        },
        {
          "indexed": false,
          "internalType": "bytes32",
          "name": "peer",
          "type": "bytes32"
        }
      ],
      "name": "PeerSet",
      "type": "event"
    },
    {
      "anonymous": false,
      "inputs": [
        {
          "indexed": false,
          "internalType": "address",
          "name": "preCrimeAddress",
          "type": "address"
        }
      ],
      "name": "PreCrimeSet",
      "type": "event"
    },
    {
      "anonymous": false,
      "inputs": [
        {
          "indexed": true,
          "internalType": "address",
          "name": "from",
          "type": "address"
        },
        {
          "indexed": true,
          "internalType": "address",
          "name": "to",
          "type": "address"
        },
        {
          "indexed": false,
          "internalType": "uint256",
          "name": "value",
          "type": "uint256"
        }
      ],
      "name": "Transfer",
      "type": "event"
    },
    {
      "inputs": [],
      "name": "CANCEL_AUTHORIZATION_TYPEHASH",
      "outputs": [
        {
          "internalType": "bytes32",
          "name": "",
          "type": "bytes32"
        }
      ],
      "stateMutability": "view",
      "type": "function"
    },
    {
      "inputs": [],
      "name": "RECEIVE_WITH_AUTHORIZATION_TYPEHASH",
      "outputs": [
        {
          "internalType": "bytes32",
          "name": "",
          "type": "bytes32"
        }
      ],
      "stateMutability": "view",
      "type": "function"
    },
    {
      "inputs": [],
      "name": "SEND",
      "outputs": [
        {
          "internalType": "uint16",
          "name": "",
          "type": "uint16"
        }
      ],
      "stateMutability": "view",
      "type": "function"
    },
    {
      "inputs": [],
      "name": "SEND_AND_CALL",
      "outputs": [
        {
          "internalType": "uint16",
          "name": "",
          "type": "uint16"
        }
      ],
      "stateMutability": "view",
      "type": "function"
    },
    {
      "inputs": [],
      "name": "TRANSFER_WITH_AUTHORIZATION_TYPEHASH",
      "outputs": [
        {
          "internalType": "bytes32",
          "name": "",
          "type": "bytes32"
        }
      ],
      "stateMutability": "view",
      "type": "function"
    },
    {
      "inputs": [
        {
          "components": [
            {
              "internalType": "uint32",
              "name": "srcEid",
              "type": "uint32"
            },
            {
              "internalType": "bytes32",
              "name": "sender",
              "type": "bytes32"
            },
            {
              "internalType": "uint64",
              "name": "nonce",
              "type": "uint64"
            }
          ],
          "internalType": "struct Origin",
          "name": "origin",
          "type": "tuple"
        }
      ],
      "name": "allowInitializePath",
      "outputs": [
        {
          "internalType": "bool",
          "name": "",
          "type": "bool"
        }
      ],
      "stateMutability": "view",
      "type": "function"
    },
    {
      "inputs": [
        {
          "internalType": "address",
          "name": "owner",
          "type": "address"
        },
        {
          "internalType": "address",
          "name": "spender",
          "type": "address"
        }
      ],
      "name": "allowance",
      "outputs": [
        {
          "internalType": "uint256",
          "name": "",
          "type": "uint256"
        }
      ],
      "stateMutability": "view",
      "type": "function"
    },
    {
      "inputs": [],
      "name": "approvalRequired",
      "outputs": [
        {
          "internalType": "bool",
          "name": "",
          "type": "bool"
        }
      ],
      "stateMutability": "pure",
      "type": "function"
    },
    {
      "inputs": [
        {
          "internalType": "address",
          "name": "spender",
          "type": "address"
        },
        {
          "internalType": "uint256",
          "name": "value",
          "type": "uint256"
        }
      ],
      "name": "approve",
      "outputs": [
        {
          "internalType": "bool",
          "name": "",
          "type": "bool"
        }
      ],
      "stateMutability": "nonpayable",
      "type": "function"
    },
    {
      "inputs": [
        {
          "internalType": "address",
          "name": "authorizer",
          "type": "address"
        },
        {
          "internalType": "bytes32",
          "name": "nonce",
          "type": "bytes32"
        }
      ],
      "name": "authorizationState",
      "outputs": [
        {
          "internalType": "bool",
          "name": "",
          "type": "bool"
        }
      ],
      "stateMutability": "view",
      "type": "function"
    },
    {
      "inputs": [
        {
          "internalType": "address",
          "name": "account",
          "type": "address"
        }
      ],
      "name": "balanceOf",
      "outputs": [
        {
          "internalType": "uint256",
          "name": "",
          "type": "uint256"
        }
      ],
      "stateMutability": "view",
      "type": "function"
    },
    {
      "inputs": [
        {
          "internalType": "address",
          "name": "_from",
          "type": "address"
        },
        {
          "internalType": "uint256",
          "name": "_amount",
          "type": "uint256"
        }
      ],
      "name": "burn",
      "outputs": [],
      "stateMutability": "nonpayable",
      "type": "function"
    },
    {
      "inputs": [
        {
          "internalType": "address",
          "name": "authorizer",
          "type": "address"
        },
        {
          "internalType": "bytes32",
          "name": "nonce",
          "type": "bytes32"
        },
        {
          "internalType": "uint8",
          "name": "v",
          "type": "uint8"
        },
        {
          "internalType": "bytes32",
          "name": "r",
          "type": "bytes32"
        },
        {
          "internalType": "bytes32",
          "name": "s",
          "type": "bytes32"
        }
      ],
      "name": "cancelAuthorization",
      "outputs": [],
      "stateMutability": "nonpayable",
      "type": "function"
    },
    {
      "inputs": [
        {
          "internalType": "uint32",
          "name": "_eid",
          "type": "uint32"
        },
        {
          "internalType": "uint16",
          "name": "_msgType",
          "type": "uint16"
        },
        {
          "internalType": "bytes",
          "name": "_extraOptions",
          "type": "bytes"
        }
      ],
      "name": "combineOptions",
      "outputs": [
        {
          "internalType": "bytes",
          "name": "",
          "type": "bytes"
        }
      ],
      "stateMutability": "view",
      "type": "function"
    },
    {
      "inputs": [],
      "name": "decimalConversionRate",
      "outputs": [
        {
          "internalType": "uint256",
          "name": "",
          "type": "uint256"
        }
      ],
      "stateMutability": "view",
      "type": "function"
    },
    {
      "inputs": [],
      "name": "decimals",
      "outputs": [
        {
          "internalType": "uint8",
          "name": "",
          "type": "uint8"
        }
      ],
      "stateMutability": "view",
      "type": "function"
    },
    {
      "inputs": [],
      "name": "eip712Domain",
      "outputs": [
        {
          "internalType": "bytes1",
          "name": "fields",
          "type": "bytes1"
        },
        {
          "internalType": "string",
          "name": "name",
          "type": "string"
        },
        {
          "internalType": "string",
          "name": "version",
          "type": "string"
        },
        {
          "internalType": "uint256",
          "name": "chainId",
          "type": "uint256"
        },
        {
          "internalType": "address",
          "name": "verifyingContract",
          "type": "address"
        },
        {
          "internalType": "bytes32",
          "name": "salt",
          "type": "bytes32"
        },
        {
          "internalType": "uint256[]",
          "name": "extensions",
          "type": "uint256[]"
        }
      ],
      "stateMutability": "view",
      "type": "function"
    },
    {
      "inputs": [],
      "name": "endpoint",
      "outputs": [
        {
          "internalType": "contract ILayerZeroEndpointV2",
          "name": "",
          "type": "address"
        }
      ],
      "stateMutability": "view",
      "type": "function"
    },
    {
      "inputs": [
        {
          "internalType": "uint32",
          "name": "_eid",
          "type": "uint32"
        },
        {
          "internalType": "uint16",
          "name": "_msgType",
          "type": "uint16"
        }
      ],
      "name": "enforcedOptions",
      "outputs": [
        {
          "internalType": "bytes",
          "name": "",
          "type": "bytes"
        }
      ],
      "stateMutability": "view",
      "type": "function"
    },
    {
      "inputs": [
        {
          "internalType": "string",
          "name": "_name",
          "type": "string"
        },
        {
          "internalType": "string",
          "name": "_symbol",
          "type": "string"
        },
        {
          "internalType": "address",
          "name": "_delegate",
          "type": "address"
        }
      ],
      "name": "initialize",
      "outputs": [],
      "stateMutability": "nonpayable",
      "type": "function"
    },
    {
      "inputs": [
        {
          "components": [
            {
              "internalType": "uint32",
              "name": "srcEid",
              "type": "uint32"
            },
            {
              "internalType": "bytes32",
              "name": "sender",
              "type": "bytes32"
            },
            {
              "internalType": "uint64",
              "name": "nonce",
              "type": "uint64"
            }
          ],
          "internalType": "struct Origin",
          "name": "",
          "type": "tuple"
        },
        {
          "internalType": "bytes",
          "name": "",
          "type": "bytes"
        },
        {
          "internalType": "address",
          "name": "_sender",
          "type": "address"
        }
      ],
      "name": "isComposeMsgSender",
      "outputs": [
        {
          "internalType": "bool",
          "name": "",
          "type": "bool"
        }
      ],
      "stateMutability": "view",
      "type": "function"
    },
    {
      "inputs": [
        {
          "internalType": "uint32",
          "name": "_eid",
          "type": "uint32"
        },
        {
          "internalType": "bytes32",
          "name": "_peer",
          "type": "bytes32"
        }
      ],
      "name": "isPeer",
      "outputs": [
        {
          "internalType": "bool",
          "name": "",
          "type": "bool"
        }
      ],
      "stateMutability": "view",
      "type": "function"
    },
    {
      "inputs": [
        {
          "components": [
            {
              "internalType": "uint32",
              "name": "srcEid",
              "type": "uint32"
            },
            {
              "internalType": "bytes32",
              "name": "sender",
              "type": "bytes32"
            },
            {
              "internalType": "uint64",
              "name": "nonce",
              "type": "uint64"
            }
          ],
          "internalType": "struct Origin",
          "name": "_origin",
          "type": "tuple"
        },
        {
          "internalType": "bytes32",
          "name": "_guid",
          "type": "bytes32"
        },
        {
          "internalType": "bytes",
          "name": "_message",
          "type": "bytes"
        },
        {
          "internalType": "address",
          "name": "_executor",
          "type": "address"
        },
        {
          "internalType": "bytes",
          "name": "_extraData",
          "type": "bytes"
        }
      ],
      "name": "lzReceive",
      "outputs": [],
      "stateMutability": "payable",
      "type": "function"
    },
    {
      "inputs": [
        {
          "components": [
            {
              "components": [
                {
                  "internalType": "uint32",
                  "name": "srcEid",
                  "type": "uint32"
                },
                {
                  "internalType": "bytes32",
                  "name": "sender",
                  "type": "bytes32"
                },
                {
                  "internalType": "uint64",
                  "name": "nonce",
                  "type": "uint64"
                }
              ],
              "internalType": "struct Origin",
              "name": "origin",
              "type": "tuple"
            },
            {
              "internalType": "uint32",
              "name": "dstEid",
              "type": "uint32"
            },
            {
              "internalType": "address",
              "name": "receiver",
              "type": "address"
            },
            {
              "internalType": "bytes32",
              "name": "guid",
              "type": "bytes32"
            },
            {
              "internalType": "uint256",
              "name": "value",
              "type": "uint256"
            },
            {
              "internalType": "address",
              "name": "executor",
              "type": "address"
            },
            {
              "internalType": "bytes",
              "name": "message",
              "type": "bytes"
            },
            {
              "internalType": "bytes",
              "name": "extraData",
              "type": "bytes"
            }
          ],
          "internalType": "struct InboundPacket[]",
          "name": "_packets",
          "type": "tuple[]"
        }
      ],
      "name": "lzReceiveAndRevert",
      "outputs": [],
      "stateMutability": "payable",
      "type": "function"
    },
    {
      "inputs": [
        {
          "components": [
            {
              "internalType": "uint32",
              "name": "srcEid",
              "type": "uint32"
            },
            {
              "internalType": "bytes32",
              "name": "sender",
              "type": "bytes32"
            },
            {
              "internalType": "uint64",
              "name": "nonce",
              "type": "uint64"
            }
          ],
          "internalType": "struct Origin",
          "name": "_origin",
          "type": "tuple"
        },
        {
          "internalType": "bytes32",
          "name": "_guid",
          "type": "bytes32"
        },
        {
          "internalType": "bytes",
          "name": "_message",
          "type": "bytes"
        },
        {
          "internalType": "address",
          "name": "_executor",
          "type": "address"
        },
        {
          "internalType": "bytes",
          "name": "_extraData",
          "type": "bytes"
        }
      ],
      "name": "lzReceiveSimulate",
      "outputs": [],
      "stateMutability": "payable",
      "type": "function"
    },
    {
      "inputs": [
        {
          "internalType": "address",
          "name": "_to",
          "type": "address"
        },
        {
          "internalType": "uint256",
          "name": "_amount",
          "type": "uint256"
        }
      ],
      "name": "mint",
      "outputs": [],
      "stateMutability": "nonpayable",
      "type": "function"
    },
    {
      "inputs": [],
      "name": "msgInspector",
      "outputs": [
        {
          "internalType": "address",
          "name": "",
          "type": "address"
        }
      ],
      "stateMutability": "view",
      "type": "function"
    },
    {
      "inputs": [],
      "name": "name",
      "outputs": [
        {
          "internalType": "string",
          "name": "",
          "type": "string"
        }
      ],
      "stateMutability": "view",
      "type": "function"
    },
    {
      "inputs": [
        {
          "internalType": "uint32",
          "name": "",
          "type": "uint32"
        },
        {
          "internalType": "bytes32",
          "name": "",
          "type": "bytes32"
        }
      ],
      "name": "nextNonce",
      "outputs": [
        {
          "internalType": "uint64",
          "name": "nonce",
          "type": "uint64"
        }
      ],
      "stateMutability": "view",
      "type": "function"
    },
    {
      "inputs": [],
      "name": "oApp",
      "outputs": [
        {
          "internalType": "address",
          "name": "",
          "type": "address"
        }
      ],
      "stateMutability": "view",
      "type": "function"
    },
    {
      "inputs": [],
      "name": "oAppVersion",
      "outputs": [
        {
          "internalType": "uint64",
          "name": "senderVersion",
          "type": "uint64"
        },
        {
          "internalType": "uint64",
          "name": "receiverVersion",
          "type": "uint64"
        }
      ],
      "stateMutability": "pure",
      "type": "function"
    },
    {
      "inputs": [],
      "name": "oftVersion",
      "outputs": [
        {
          "internalType": "bytes4",
          "name": "interfaceId",
          "type": "bytes4"
        },
        {
          "internalType": "uint64",
          "name": "version",
          "type": "uint64"
        }
      ],
      "stateMutability": "pure",
      "type": "function"
    },
    {
      "inputs": [],
      "name": "owner",
      "outputs": [
        {
          "internalType": "address",
          "name": "",
          "type": "address"
        }
      ],
      "stateMutability": "view",
      "type": "function"
    },
    {
      "inputs": [
        {
          "internalType": "uint32",
          "name": "_eid",
          "type": "uint32"
        }
      ],
      "name": "peers",
      "outputs": [
        {
          "internalType": "bytes32",
          "name": "",
          "type": "bytes32"
        }
      ],
      "stateMutability": "view",
      "type": "function"
    },
    {
      "inputs": [],
      "name": "preCrime",
      "outputs": [
        {
          "internalType": "address",
          "name": "",
          "type": "address"
        }
      ],
      "stateMutability": "view",
      "type": "function"
    },
    {
      "inputs": [
        {
          "components": [
            {
              "internalType": "uint32",
              "name": "dstEid",
              "type": "uint32"
            },
            {
              "internalType": "bytes32",
              "name": "to",
              "type": "bytes32"
            },
            {
              "internalType": "uint256",
              "name": "amountLD",
              "type": "uint256"
            },
            {
              "internalType": "uint256",
              "name": "minAmountLD",
              "type": "uint256"
            },
            {
              "internalType": "bytes",
              "name": "extraOptions",
              "type": "bytes"
            },
            {
              "internalType": "bytes",
              "name": "composeMsg",
              "type": "bytes"
            },
            {
              "internalType": "bytes",
              "name": "oftCmd",
              "type": "bytes"
            }
          ],
          "internalType": "struct SendParam",
          "name": "_sendParam",
          "type": "tuple"
        }
      ],
      "name": "quoteOFT",
      "outputs": [
        {
          "components": [
            {
              "internalType": "uint256",
              "name": "minAmountLD",
              "type": "uint256"
            },
            {
              "internalType": "uint256",
              "name": "maxAmountLD",
              "type": "uint256"
            }
          ],
          "internalType": "struct OFTLimit",
          "name": "oftLimit",
          "type": "tuple"
        },
        {
          "components": [
            {
              "internalType": "int256",
              "name": "feeAmountLD",
              "type": "int256"
            },
            {
              "internalType": "string",
              "name": "description",
              "type": "string"
            }
          ],
          "internalType": "struct OFTFeeDetail[]",
          "name": "oftFeeDetails",
          "type": "tuple[]"
        },
        {
          "components": [
            {
              "internalType": "uint256",
              "name": "amountSentLD",
              "type": "uint256"
            },
            {
              "internalType": "uint256",
              "name": "amountReceivedLD",
              "type": "uint256"
            }
          ],
          "internalType": "struct OFTReceipt",
          "name": "oftReceipt",
          "type": "tuple"
        }
      ],
      "stateMutability": "view",
      "type": "function"
    },
    {
      "inputs": [
        {
          "components": [
            {
              "internalType": "uint32",
              "name": "dstEid",
              "type": "uint32"
            },
            {
              "internalType": "bytes32",
              "name": "to",
              "type": "bytes32"
            },
            {
              "internalType": "uint256",
              "name": "amountLD",
              "type": "uint256"
            },
            {
              "internalType": "uint256",
              "name": "minAmountLD",
              "type": "uint256"
            },
            {
              "internalType": "bytes",
              "name": "extraOptions",
              "type": "bytes"
            },
            {
              "internalType": "bytes",
              "name": "composeMsg",
              "type": "bytes"
            },
            {
              "internalType": "bytes",
              "name": "oftCmd",
              "type": "bytes"
            }
          ],
          "internalType": "struct SendParam",
          "name": "_sendParam",
          "type": "tuple"
        },
        {
          "internalType": "bool",
          "name": "_payInLzToken",
          "type": "bool"
        }
      ],
      "name": "quoteSend",
      "outputs": [
        {
          "components": [
            {
              "internalType": "uint256",
              "name": "nativeFee",
              "type": "uint256"
            },
            {
              "internalType": "uint256",
              "name": "lzTokenFee",
              "type": "uint256"
            }
          ],
          "internalType": "struct MessagingFee",
          "name": "msgFee",
          "type": "tuple"
        }
      ],
      "stateMutability": "view",
      "type": "function"
    },
    {
      "inputs": [
        {
          "internalType": "address",
          "name": "from",
          "type": "address"
        },
        {
          "internalType": "address",
          "name": "to",
          "type": "address"
        },
        {
          "internalType": "uint256",
          "name": "value",
          "type": "uint256"
        },
        {
          "internalType": "uint256",
          "name": "validAfter",
          "type": "uint256"
        },
        {
          "internalType": "uint256",
          "name": "validBefore",
          "type": "uint256"
        },
        {
          "internalType": "bytes32",
          "name": "nonce",
          "type": "bytes32"
        },
        {
          "internalType": "uint8",
          "name": "v",
          "type": "uint8"
        },
        {
          "internalType": "bytes32",
          "name": "r",
          "type": "bytes32"
        },
        {
          "internalType": "bytes32",
          "name": "s",
          "type": "bytes32"
        }
      ],
      "name": "receiveWithAuthorization",
      "outputs": [],
      "stateMutability": "nonpayable",
      "type": "function"
    },
    {
      "inputs": [],
      "name": "renounceOwnership",
      "outputs": [],
      "stateMutability": "nonpayable",
      "type": "function"
    },
    {
      "inputs": [
        {
          "components": [
            {
              "internalType": "uint32",
              "name": "dstEid",
              "type": "uint32"
            },
            {
              "internalType": "bytes32",
              "name": "to",
              "type": "bytes32"
            },
            {
              "internalType": "uint256",
              "name": "amountLD",
              "type": "uint256"
            },
            {
              "internalType": "uint256",
              "name": "minAmountLD",
              "type": "uint256"
            },
            {
              "internalType": "bytes",
              "name": "extraOptions",
              "type": "bytes"
            },
            {
              "internalType": "bytes",
              "name": "composeMsg",
              "type": "bytes"
            },
            {
              "internalType": "bytes",
              "name": "oftCmd",
              "type": "bytes"
            }
          ],
          "internalType": "struct SendParam",
          "name": "_sendParam",
          "type": "tuple"
        },
        {
          "components": [
            {
              "internalType": "uint256",
              "name": "nativeFee",
              "type": "uint256"
            },
            {
              "internalType": "uint256",
              "name": "lzTokenFee",
              "type": "uint256"
            }
          ],
          "internalType": "struct MessagingFee",
          "name": "_fee",
          "type": "tuple"
        },
        {
          "internalType": "address",
          "name": "_refundAddress",
          "type": "address"
        }
      ],
      "name": "send",
      "outputs": [
        {
          "components": [
            {
              "internalType": "bytes32",
              "name": "guid",
              "type": "bytes32"
            },
            {
              "internalType": "uint64",
              "name": "nonce",
              "type": "uint64"
            },
            {
              "components": [
                {
                  "internalType": "uint256",
                  "name": "nativeFee",
                  "type": "uint256"
                },
                {
                  "internalType": "uint256",
                  "name": "lzTokenFee",
                  "type": "uint256"
                }
              ],
              "internalType": "struct MessagingFee",
              "name": "fee",
              "type": "tuple"
            }
          ],
          "internalType": "struct MessagingReceipt",
          "name": "msgReceipt",
          "type": "tuple"
        },
        {
          "components": [
            {
              "internalType": "uint256",
              "name": "amountSentLD",
              "type": "uint256"
            },
            {
              "internalType": "uint256",
              "name": "amountReceivedLD",
              "type": "uint256"
            }
          ],
          "internalType": "struct OFTReceipt",
          "name": "oftReceipt",
          "type": "tuple"
        }
      ],
      "stateMutability": "payable",
      "type": "function"
    },
    {
      "inputs": [
        {
          "internalType": "address",
          "name": "_delegate",
          "type": "address"
        }
      ],
      "name": "setDelegate",
      "outputs": [],
      "stateMutability": "nonpayable",
      "type": "function"
    },
    {
      "inputs": [
        {
          "components": [
            {
              "internalType": "uint32",
              "name": "eid",
              "type": "uint32"
            },
            {
              "internalType": "uint16",
              "name": "msgType",
              "type": "uint16"
            },
            {
              "internalType": "bytes",
              "name": "options",
              "type": "bytes"
            }
          ],
          "internalType": "struct EnforcedOptionParam[]",
          "name": "_enforcedOptions",
          "type": "tuple[]"
        }
      ],
      "name": "setEnforcedOptions",
      "outputs": [],
      "stateMutability": "nonpayable",
      "type": "function"
    },
    {
      "inputs": [
        {
          "internalType": "address",
          "name": "_msgInspector",
          "type": "address"
        }
      ],
      "name": "setMsgInspector",
      "outputs": [],
      "stateMutability": "nonpayable",
      "type": "function"
    },
    {
      "inputs": [
        {
          "internalType": "uint32",
          "name": "_eid",
          "type": "uint32"
        },
        {
          "internalType": "bytes32",
          "name": "_peer",
          "type": "bytes32"
        }
      ],
      "name": "setPeer",
      "outputs": [],
      "stateMutability": "nonpayable",
      "type": "function"
    },
    {
      "inputs": [
        {
          "internalType": "address",
          "name": "_preCrime",
          "type": "address"
        }
      ],
      "name": "setPreCrime",
      "outputs": [],
      "stateMutability": "nonpayable",
      "type": "function"
    },
    {
      "inputs": [],
      "name": "sharedDecimals",
      "outputs": [
        {
          "internalType": "uint8",
          "name": "",
          "type": "uint8"
        }
      ],
      "stateMutability": "pure",
      "type": "function"
    },
    {
      "inputs": [],
      "name": "symbol",
      "outputs": [
        {
          "internalType": "string",
          "name": "",
          "type": "string"
        }
      ],
      "stateMutability": "view",
      "type": "function"
    },
    {
      "inputs": [],
      "name": "token",
      "outputs": [
        {
          "internalType": "address",
          "name": "",
          "type": "address"
        }
      ],
      "stateMutability": "view",
      "type": "function"
    },
    {
      "inputs": [],
      "name": "totalSupply",
      "outputs": [
        {
          "internalType": "uint256",
          "name": "",
          "type": "uint256"
        }
      ],
      "stateMutability": "view",
      "type": "function"
    },
    {
      "inputs": [
        {
          "internalType": "address",
          "name": "to",
          "type": "address"
        },
        {
          "internalType": "uint256",
          "name": "value",
          "type": "uint256"
        }
      ],
      "name": "transfer",
      "outputs": [
        {
          "internalType": "bool",
          "name": "",
          "type": "bool"
        }
      ],
      "stateMutability": "nonpayable",
      "type": "function"
    },
    {
      "inputs": [
        {
          "internalType": "address",
          "name": "from",
          "type": "address"
        },
        {
          "internalType": "address",
          "name": "to",
          "type": "address"
        },
        {
          "internalType": "uint256",
          "name": "value",
          "type": "uint256"
        }
      ],
      "name": "transferFrom",
      "outputs": [
        {
          "internalType": "bool",
          "name": "",
          "type": "bool"
        }
      ],
      "stateMutability": "nonpayable",
      "type": "function"
    },
    {
      "inputs": [
        {
          "internalType": "address",
          "name": "newOwner",
          "type": "address"
        }
      ],
      "name": "transferOwnership",
      "outputs": [],
      "stateMutability": "nonpayable",
      "type": "function"
    },
    {
      "inputs": [
        {
          "internalType": "address",
          "name": "from",
          "type": "address"
        },
        {
          "internalType": "address",
          "name": "to",
          "type": "address"
        },
        {
          "internalType": "uint256",
          "name": "value",
          "type": "uint256"
        },
        {
          "internalType": "uint256",
          "name": "validAfter",
          "type": "uint256"
        },
        {
          "internalType": "uint256",
          "name": "validBefore",
          "type": "uint256"
        },
        {
          "internalType": "bytes32",
          "name": "nonce",
          "type": "bytes32"
        },
        {
          "internalType": "uint8",
          "name": "v",
          "type": "uint8"
        },
        {
          "internalType": "bytes32",
          "name": "r",
          "type": "bytes32"
        },
        {
          "internalType": "bytes32",
          "name": "s",
          "type": "bytes32"
        }
      ],
      "name": "transferWithAuthorization",
      "outputs": [],
      "stateMutability": "nonpayable",
      "type": "function"
    }
  ],
  "transactionHash": "0x0a5ef1a5c82b4428afed04ba910bea1740db97b299aeb7e7723fab4a5e0bb53e",
  "args": [
    "0x6EDCE65403992e310A62460808c4b910D972f10f"
  ],
  "numDeployments": 1,
  "solcInputHash": "5fa7431c54c1a400eb86dfac617ec4f9",
  "bytecode": "0x60c06040523480156200001157600080fd5b506040516200455d3803806200455d83398101604081905262000034916200012b565b6001600160a01b038116608052806012816200005260068362000173565b6200005f90600a62000292565b60a052506200007091505062000077565b50620002a3565b7ff0c57e16840df040f15088dc2f81fe391c3923bec73e23a9662efc9c229c6a00805468010000000000000000900460ff1615620000c85760405163f92ee8a960e01b815260040160405180910390fd5b80546001600160401b0390811614620001285780546001600160401b0319166001600160401b0390811782556040519081527fc7f505b2f371ae2175ee4913f4499e1f2633a7b5936321eed1cdaeb6115181d29060200160405180910390a15b50565b6000602082840312156200013e57600080fd5b81516001600160a01b03811681146200015657600080fd5b9392505050565b634e487b7160e01b600052601160045260246000fd5b60ff82811682821603908111156200018f576200018f6200015d565b92915050565b600181815b80851115620001d6578160001904821115620001ba57620001ba6200015d565b80851615620001c857918102915b93841c93908002906200019a565b509250929050565b600082620001ef575060016200018f565b81620001fe575060006200018f565b8160018114620002175760028114620002225762000242565b60019150506200018f565b60ff8411156200023657620002366200015d565b50506001821b6200018f565b5060208310610133831016604e8410600b841016171562000267575081810a6200018f565b62000273838362000195565b80600019048211156200028a576200028a6200015d565b029392505050565b60006200015660ff841683620001de565b60805160a05161424e6200030f600039600081816107c8015281816125170152818161258c01526127a401526000818161062701528181610d8c0152818161181b01528181611b4b01528181611e7001528181612243015281816128b2015261296b015261424e6000f3fe60806040526004361061031a5760003560e01c806382413eac116101ab578063bc70b354116100f7578063dd62ed3e11610095578063ef55bec61161006f578063ef55bec614610a46578063f2fde38b14610a66578063fc0c546a1461057e578063ff7bd03d14610a8657600080fd5b8063dd62ed3e146109c2578063e3ee160e146109e2578063e94a010214610a0257600080fd5b8063ca5eb5e1116100d1578063ca5eb5e11461093b578063d045a0dc1461095b578063d42438851461096e578063d91694871461098e57600080fd5b8063bc70b354146108e7578063bd815db014610907578063c7c7f5b31461091a57600080fd5b80639dc29fac11610164578063a9059cbb1161013e578063a9059cbb14610852578063b731ea0a14610872578063b98bd07014610887578063bb0b6a53146108a757600080fd5b80639dc29fac146107ea5780639f68b9641461080a578063a0cc6a681461081e57600080fd5b806382413eac1461073057806384b0196e14610750578063857749b0146107785780638da5cb5b1461078c57806395d89b41146107a1578063963efcaa146107b657600080fd5b80633400288b1161026a5780635a0dfe4d1161022357806370a08231116101fd57806370a0823114610669578063715018a6146106ac5780637d25a05e146106c15780637f2eecc3146106fc57600080fd5b80635a0dfe4d146105d15780635e280f11146106155780636fc1b31e1461064957600080fd5b80633400288b146105115780633b6f743b1461053157806340c10f191461055e57806352ae28791461057e5780635535d461146105915780635a049a70146105b157600080fd5b8063134d4f25116102d757806318160ddd116102b157806318160ddd1461047c5780631f5e1334146104ba57806323b872dd146104cf578063313ce567146104ef57600080fd5b8063134d4f251461040b578063156a0d0f1461043357806317442b701461045a57600080fd5b806306fdde031461031f578063077f224a1461034a578063095ea7b31461036c5780630d35b4151461039c578063111ecdad146103cb57806313137d65146103f8575b600080fd5b34801561032b57600080fd5b50610334610aa6565b604051610341919061303a565b60405180910390f35b34801561035657600080fd5b5061036a61036536600461314d565b610b4f565b005b34801561037857600080fd5b5061038c6103873660046131c4565b610c6a565b6040519015158152602001610341565b3480156103a857600080fd5b506103bc6103b7366004613208565b610c84565b6040516103419392919061323c565b3480156103d757600080fd5b506103e0610d55565b6040516001600160a01b039091168152602001610341565b61036a61040636600461332f565b610d8a565b34801561041757600080fd5b50610420600281565b60405161ffff9091168152602001610341565b34801561043f57600080fd5b506040805162b9270b60e21b81526001602082015201610341565b34801561046657600080fd5b5060408051600181526002602082015201610341565b34801561048857600080fd5b507f52c63247e1f47db19d5ce0460030c497f067ca4cebf71ba98eeadabe20bace02545b604051908152602001610341565b3480156104c657600080fd5b50610420600181565b3480156104db57600080fd5b5061038c6104ea3660046133ce565b610e4a565b3480156104fb57600080fd5b5060125b60405160ff9091168152602001610341565b34801561051d57600080fd5b5061036a61052c366004613428565b610e70565b34801561053d57600080fd5b5061055161054c366004613452565b610edd565b60405161034191906134a3565b34801561056a57600080fd5b5061036a6105793660046131c4565b610f44565b34801561058a57600080fd5b50306103e0565b34801561059d57600080fd5b506103346105ac3660046134cc565b610f5a565b3480156105bd57600080fd5b5061036a6105cc366004613510565b611035565b3480156105dd57600080fd5b5061038c6105ec366004613428565b63ffffffff9190911660009081526000805160206141d983398151915260205260409020541490565b34801561062157600080fd5b506103e07f000000000000000000000000000000000000000000000000000000000000000081565b34801561065557600080fd5b5061036a610664366004613560565b611049565b34801561067557600080fd5b506104ac610684366004613560565b6001600160a01b031660009081526000805160206141b9833981519152602052604090205490565b3480156106b857600080fd5b5061036a6110c5565b3480156106cd57600080fd5b506106e46106dc366004613428565b600092915050565b6040516001600160401b039091168152602001610341565b34801561070857600080fd5b506104ac7fd099cc98ef71107a616c4f0f941f04c322d8e254fe26b3c6668db87aae413de881565b34801561073c57600080fd5b5061038c61074b36600461357d565b6110d9565b34801561075c57600080fd5b506107656110ee565b60405161034197969594939291906135e3565b34801561078457600080fd5b5060066104ff565b34801561079857600080fd5b506103e061119a565b3480156107ad57600080fd5b506103346111c3565b3480156107c257600080fd5b506104ac7f000000000000000000000000000000000000000000000000000000000000000081565b3480156107f657600080fd5b5061036a6108053660046131c4565b611202565b34801561081657600080fd5b50600061038c565b34801561082a57600080fd5b506104ac7f7c7c6cdb67a18743f49ec6fa9b35f50d52ed05cbed4cc592e13b44501c1a226781565b34801561085e57600080fd5b5061038c61086d3660046131c4565b611214565b34801561087e57600080fd5b506103e0611222565b34801561089357600080fd5b5061036a6108a23660046136c0565b61124b565b3480156108b357600080fd5b506104ac6108c2366004613701565b63ffffffff1660009081526000805160206141d9833981519152602052604090205490565b3480156108f357600080fd5b5061033461090236600461371c565b6113cc565b61036a6109153660046136c0565b611562565b61092d61092836600461377c565b6116f9565b6040516103419291906137de565b34801561094757600080fd5b5061036a610956366004613560565b6117f4565b61036a61096936600461332f565b611873565b34801561097a57600080fd5b5061036a610989366004613560565b6118a2565b34801561099a57600080fd5b506104ac7f158b0a9edf7a828aad02f63cd515c68ef2f50ba807396f6d12842833a159742981565b3480156109ce57600080fd5b506104ac6109dd366004613830565b611916565b3480156109ee57600080fd5b5061036a6109fd36600461385e565b611960565b348015610a0e57600080fd5b5061038c610a1d3660046131c4565b6001600160a01b0391909116600090815260208181526040808320938352929052205460ff1690565b348015610a5257600080fd5b5061036a610a6136600461385e565b61197c565b348015610a7257600080fd5b5061036a610a81366004613560565b61198d565b348015610a9257600080fd5b5061038c610aa13660046138e0565b6119cb565b606060006000805160206141b98339815191525b9050806003018054610acb906138fc565b80601f0160208091040260200160405190810160405280929190818152602001828054610af7906138fc565b8015610b445780601f10610b1957610100808354040283529160200191610b44565b820191906000526020600020905b815481529060010190602001808311610b2757829003601f168201915b505050505091505090565b7ff0c57e16840df040f15088dc2f81fe391c3923bec73e23a9662efc9c229c6a008054600160401b810460ff1615906001600160401b0316600081158015610b945750825b90506000826001600160401b03166001148015610bb05750303b155b905081158015610bbe575080155b15610bdc5760405163f92ee8a960e01b815260040160405180910390fd5b845467ffffffffffffffff191660011785558315610c0657845460ff60401b1916600160401b1785555b610c118888886119e9565b610c1a86611a09565b8315610c6057845460ff60401b19168555604051600181527fc7f505b2f371ae2175ee4913f4499e1f2633a7b5936321eed1cdaeb6115181d29060200160405180910390a15b5050505050505050565b600033610c78818585611a1a565b60019150505b92915050565b60408051808201909152600080825260208201526060610cb7604051806040016040528060008152602001600081525090565b60408051808201825260008082526001600160401b03602080840182905284518381529081019094529195509182610d12565b604080518082019091526000815260606020820152815260200190600190039081610cea5790505b509350600080610d37604089013560608a0135610d3260208c018c613701565b611a27565b60408051808201909152918252602082015296989597505050505050565b6000807f41db8a78b0206aba5c54bcbfc2bda0d84082a84eb88e680379a57b9e9f653c005b546001600160a01b031692915050565b7f00000000000000000000000000000000000000000000000000000000000000006001600160a01b03163314610dda576040516391ac5e4f60e01b81523360048201526024015b60405180910390fd5b60208701803590610df490610def908a613701565b611a6b565b14610e3257610e066020880188613701565b60405163309afaf360e21b815263ffffffff909116600482015260208801356024820152604401610dd1565b610e4187878787878787611ab6565b50505050505050565b600033610e58858285611c1d565b610e63858585611c84565b60019150505b9392505050565b610e78611ce3565b63ffffffff821660008181526000805160206141d9833981519152602081815260409283902085905582519384528301849052917f238399d427b947898edb290f5ff0f9109849b1c3ba196a42e35f00c50a54b98b91015b60405180910390a1505050565b60408051808201909152600080825260208201526000610f0d60408501356060860135610d326020880188613701565b915050600080610f1d8684611d15565b9092509050610f3a610f326020880188613701565b838388611e5a565b9695505050505050565b610f4c611ce3565b610f568282611f3b565b5050565b63ffffffff821660009081527f8d2bda5d9f6ffb5796910376005392955773acee5548d0fcdb10e7c264ea00006020818152604080842061ffff8616855290915290912080546060929190610fae906138fc565b80601f0160208091040260200160405190810160405280929190818152602001828054610fda906138fc565b80156110275780601f10610ffc57610100808354040283529160200191611027565b820191906000526020600020905b81548152906001019060200180831161100a57829003601f168201915b505050505091505092915050565b6110428585858585611f71565b5050505050565b611051611ce3565b7f41db8a78b0206aba5c54bcbfc2bda0d84082a84eb88e680379a57b9e9f653c0080546001600160a01b0319166001600160a01b03831690811782556040519081527ff0be4f1e87349231d80c36b33f9e8639658eeaf474014dee15a3e6a4d4414197906020015b60405180910390a15050565b6110cd611ce3565b6110d760006120aa565b565b6001600160a01b03811630145b949350505050565b600060608082808083816000805160206141f9833981519152805490915015801561111b57506001810154155b61115f5760405162461bcd60e51b81526020600482015260156024820152741152540dcc4c8e88155b9a5b9a5d1a585b1a5e9959605a1b6044820152606401610dd1565b61116761211b565b61116f61215a565b60408051600080825260208201909252600f60f81b9c939b5091995046985030975095509350915050565b6000807f9016d09d72d40fdae2fd8ceac6b6234c7706214fd39c1cd1e609a0528c199300610d7a565b7f52c63247e1f47db19d5ce0460030c497f067ca4cebf71ba98eeadabe20bace0480546060916000805160206141b983398151915291610acb906138fc565b61120a611ce3565b610f568282612172565b600033610c78818585611c84565b6000807fefb041d771d6daaa55702fff6eb740d63ba559a75d2d1d3e151c78ff2480b600610d7a565b611253611ce3565b7f8d2bda5d9f6ffb5796910376005392955773acee5548d0fcdb10e7c264ea000060005b8281101561139a576112b984848381811061129457611294613930565b90506020028101906112a69190613946565b6112b4906040810190613966565b6121a8565b8383828181106112cb576112cb613930565b90506020028101906112dd9190613946565b6112eb906040810190613966565b83600087878681811061130057611300613930565b90506020028101906113129190613946565b611320906020810190613701565b63ffffffff1663ffffffff168152602001908152602001600020600087878681811061134e5761134e613930565b90506020028101906113609190613946565b6113719060408101906020016139ac565b61ffff168152602081019190915260400160002091611391919083613a17565b50600101611277565b507fbe4864a8e820971c0247f5992e2da559595f7bf076a21cb5928d443d2a13b6748383604051610ed0929190613aff565b63ffffffff841660009081527f8d2bda5d9f6ffb5796910376005392955773acee5548d0fcdb10e7c264ea00006020818152604080842061ffff8816855290915282208054606093919061141f906138fc565b80601f016020809104026020016040519081016040528092919081815260200182805461144b906138fc565b80156114985780601f1061146d57610100808354040283529160200191611498565b820191906000526020600020905b81548152906001019060200180831161147b57829003601f168201915b5050505050905080516000036114e95784848080601f0160208091040260200160405190810160405280939291908181526020018383808284376000920191909152509295506110e6945050505050565b60008490036114fb5791506110e69050565b600284106115455761150d85856121a8565b8061151b8560028189613be3565b60405160200161152d93929190613c0d565b604051602081830303815290604052925050506110e6565b8484604051639a6d49cd60e01b8152600401610dd1929190613c35565b60005b81811015611678573683838381811061158057611580613930565b90506020028101906115929190613c49565b90506115d26115a46020830183613701565b602083013563ffffffff9190911660009081526000805160206141d983398151915260205260409020541490565b6115dc5750611670565b3063d045a0dc60c08301358360a08101356115fb610100830183613966565b61160c610100890160e08a01613560565b61161a6101208a018a613966565b6040518963ffffffff1660e01b815260040161163c9796959493929190613c75565b6000604051808303818588803b15801561165557600080fd5b505af1158015611669573d6000803e3d6000fd5b5050505050505b600101611565565b50336001600160a01b0316638e9e70996040518163ffffffff1660e01b8152600401600060405180830381865afa1580156116b7573d6000803e3d6000fd5b505050506040513d6000823e601f3d908101601f191682016040526116df9190810190613cfb565b604051638351eea760e01b8152600401610dd1919061303a565b611701612fa3565b604080518082019091526000808252602082015260008061173833604089013560608a013561173360208c018c613701565b6121ea565b915091506000806117498984611d15565b909250905061177561175e60208b018b613701565b838361176f368d90038d018d613d68565b8b612210565b60408051808201909152858152602080820186905282519298509096503391907f85496b760a4b7f8d66384b9df21b381f5d1b1e79f229a47aaf4c232edc2fe59a906117c3908d018d613701565b6040805163ffffffff909216825260208201899052810187905260600160405180910390a350505050935093915050565b6117fc611ce3565b60405163ca5eb5e160e01b81526001600160a01b0382811660048301527f0000000000000000000000000000000000000000000000000000000000000000169063ca5eb5e190602401600060405180830381600087803b15801561185f57600080fd5b505af1158015611042573d6000803e3d6000fd5b3330146118935760405163029a949d60e31b815260040160405180910390fd5b610e4187878787878787610e32565b6118aa611ce3565b7fefb041d771d6daaa55702fff6eb740d63ba559a75d2d1d3e151c78ff2480b60080546001600160a01b0319166001600160a01b03831690811782556040519081527fd48d879cef83a1c0bdda516f27b13ddb1b3f8bbac1c9e1511bb2a659c2427760906020016110b9565b6001600160a01b0391821660009081527f52c63247e1f47db19d5ce0460030c497f067ca4cebf71ba98eeadabe20bace016020908152604080832093909416825291909152205490565b61197189898989898989898961231b565b505050505050505050565b61197189898989898989898961234d565b611995611ce3565b6001600160a01b0381166119bf57604051631e4fbdf760e01b815260006004820152602401610dd1565b6119c8816120aa565b50565b6000602082018035906119e2906108c29085613701565b1492915050565b6119f16123a8565b6119fb83836123f1565b611a0481612403565b505050565b611a116123a8565b6119c881612424565b611a04838383600161242c565b600080611a3385612513565b915081905083811015611a63576040516371c4efed60e01b81526004810182905260248101859052604401610dd1565b935093915050565b63ffffffff811660009081526000805160206141d98339815191526020819052604082205480610e695760405163f6ff4fb760e01b815263ffffffff85166004820152602401610dd1565b6000611ac8611ac5878761254a565b90565b90506000611af482611ae2611add8a8a612562565b612585565b611aef60208d018d613701565b6125ba565b90506028861115611bbb576000611b31611b1460608c0160408d01613d9a565b611b2160208d018d613701565b84611b2c8c8c6125e2565b61262d565b604051633e5ac80960e11b81529091506001600160a01b037f00000000000000000000000000000000000000000000000000000000000000001690637cb5901290611b879086908d906000908790600401613db7565b600060405180830381600087803b158015611ba157600080fd5b505af1158015611bb5573d6000803e3d6000fd5b50505050505b6001600160a01b038216887fefed6d3500546b29533b128a29e3a94d70788727f0507505ac12eaf2e578fd9c611bf460208d018d613701565b6040805163ffffffff9092168252602082018690520160405180910390a3505050505050505050565b6000611c298484611916565b9050600019811015611c7e5781811015611c6f57604051637dc7a0d960e11b81526001600160a01b03841660048201526024810182905260448101839052606401610dd1565b611c7e8484848403600061242c565b50505050565b6001600160a01b038316611cae57604051634b637e8f60e11b815260006004820152602401610dd1565b6001600160a01b038216611cd85760405163ec442f0560e01b815260006004820152602401610dd1565b611a0483838361265f565b33611cec61119a565b6001600160a01b0316146110d75760405163118cdaa760e01b8152336004820152602401610dd1565b6060806000611d728560200135611d2b8661279d565b611d3860a0890189613966565b8080601f0160208091040260200160405190810160405280939291908181526020018383808284376000920191909152506127c992505050565b9093509050600081611d85576001611d88565b60025b9050611da8611d9a6020880188613701565b8261090260808a018a613966565b7f41db8a78b0206aba5c54bcbfc2bda0d84082a84eb88e680379a57b9e9f653c008054919450906001600160a01b03168015611e4f5760405163043a78eb60e01b81526001600160a01b0382169063043a78eb90611e0c9089908990600401613de8565b602060405180830381865afa158015611e29573d6000803e3d6000fd5b505050506040513d601f19601f82011682018060405250810190611e4d9190613e0d565b505b505050509250929050565b60408051808201909152600080825260208201527f00000000000000000000000000000000000000000000000000000000000000006001600160a01b031663ddc28c586040518060a001604052808863ffffffff168152602001611ebd89611a6b565b8152602001878152602001868152602001851515815250306040518363ffffffff1660e01b8152600401611ef2929190613e2a565b6040805180830381865afa158015611f0e573d6000803e3d6000fd5b505050506040513d601f19601f82011682018060405250810190611f329190613ed3565b95945050505050565b6001600160a01b038216611f655760405163ec442f0560e01b815260006004820152602401610dd1565b610f566000838361265f565b6001600160a01b03851660009081526020818152604080832087845290915290205460ff1615611fb357604051625b082f60e21b815260040160405180910390fd5b604080517f158b0a9edf7a828aad02f63cd515c68ef2f50ba807396f6d12842833a159742960208201526001600160a01b038716918101919091526060810185905261204f9086906080015b60408051601f1981840301815282825280516020918201209083018790529082018590526001600160f81b031960f888901b16606083015290606101604051602081830303815290604052612843565b6001600160a01b038516600081815260208181526040808320888452909152808220805460ff19166001179055518692917f1cdd46ff242716cdaa72d159d339a485b3438398348d68f09d7c8c0a59353d8191a35050505050565b7f9016d09d72d40fdae2fd8ceac6b6234c7706214fd39c1cd1e609a0528c19930080546001600160a01b031981166001600160a01b03848116918217845560405192169182907f8be0079c531659141344cd1fd0a4f28419497f9722a3daafe3b4186f6b6457e090600090a3505050565b7fa16a46d94261c7517cc8ff89f61c0ce93598e3c849801011dee649a6a557d10280546060916000805160206141f983398151915291610acb906138fc565b606060006000805160206141f9833981519152610aba565b6001600160a01b03821661219c57604051634b637e8f60e11b815260006004820152602401610dd1565b610f568260008361265f565b60006121b76002828486613be3565b6121c091613eef565b60f01c905060038114611a04578282604051639a6d49cd60e01b8152600401610dd1929190613c35565b6000806121f8858585611a27565b90925090506122078683612172565b94509492505050565b612218612fa3565b60006122278460000151612886565b6020850151909150156122415761224184602001516128ae565b7f00000000000000000000000000000000000000000000000000000000000000006001600160a01b0316632637a450826040518060a001604052808b63ffffffff1681526020016122918c611a6b565b81526020018a815260200189815260200160008960200151111515815250866040518463ffffffff1660e01b81526004016122cd929190613e2a565b60806040518083038185885af11580156122eb573d6000803e3d6000fd5b50505050506040513d601f19601f820116820180604052508101906123109190613f1f565b979650505050505050565b6119717f7c7c6cdb67a18743f49ec6fa9b35f50d52ed05cbed4cc592e13b44501c1a22678a8a8a8a8a8a8a8a8a612990565b336001600160a01b0389161461237657604051630e596bfd60e01b815260040160405180910390fd5b6119717fd099cc98ef71107a616c4f0f941f04c322d8e254fe26b3c6668db87aae413de88a8a8a8a8a8a8a8a8a612990565b7ff0c57e16840df040f15088dc2f81fe391c3923bec73e23a9662efc9c229c6a0054600160401b900460ff166110d757604051631afcd79f60e31b815260040160405180910390fd5b6123f96123a8565b610f568282612ad1565b61240b6123a8565b61241481612b22565b61241c612b33565b6119c8612b33565b6119956123a8565b6000805160206141b98339815191526001600160a01b0385166124655760405163e602df0560e01b815260006004820152602401610dd1565b6001600160a01b03841661248f57604051634a1406b160e11b815260006004820152602401610dd1565b6001600160a01b0380861660009081526001830160209081526040808320938816835292905220839055811561104257836001600160a01b0316856001600160a01b03167f8c5be1e5ebec7d5bd14f71427d1e84f3dd0314c0f7b2291e5b200ac8c7c3b9258560405161250491815260200190565b60405180910390a35050505050565b60007f00000000000000000000000000000000000000000000000000000000000000006125408184613f9c565b610c7e9190613fbe565b60006125596020828486613be3565b610e6991613fd5565b6000612572602860208486613be3565b61257b91613ff3565b60c01c9392505050565b6000610c7e7f00000000000000000000000000000000000000000000000000000000000000006001600160401b038416613fbe565b60006001600160a01b0384166125d05761dead93505b6125da8484611f3b565b509092915050565b60606125f18260288186613be3565b8080601f016020809104026020016040519081016040528093929190818152602001838380828437600092019190915250929695505050505050565b6060848484846040516020016126469493929190614021565b6040516020818303038152906040529050949350505050565b6000805160206141b98339815191526001600160a01b03841661269b57818160020160008282546126909190614070565b9091555061270d9050565b6001600160a01b038416600090815260208290526040902054828110156126ee5760405163391434e360e21b81526001600160a01b03861660048201526024810182905260448101849052606401610dd1565b6001600160a01b03851660009081526020839052604090209083900390555b6001600160a01b03831661272b57600281018054839003905561274a565b6001600160a01b03831660009081526020829052604090208054830190555b826001600160a01b0316846001600160a01b03167fddf252ad1be2c89b69c2b068fc378daa952ba7f163c4a11628f55a4df523b3ef8460405161278f91815260200190565b60405180910390a350505050565b6000610c7e7f000000000000000000000000000000000000000000000000000000000000000083613f9c565b80516060901515806128125784846040516020016127fe92919091825260c01b6001600160c01b031916602082015260280190565b604051602081830303815290604052612839565b848433856040516020016128299493929190614083565b6040516020818303038152906040525b9150935093915050565b61285561284f83612b3b565b82612b68565b6001600160a01b0316836001600160a01b031614611a045760405163e3428bf960e01b815260040160405180910390fd5b60008134146128aa576040516304fb820960e51b8152346004820152602401610dd1565b5090565b60007f00000000000000000000000000000000000000000000000000000000000000006001600160a01b031663e4fe1d946040518163ffffffff1660e01b8152600401602060405180830381865afa15801561290e573d6000803e3d6000fd5b505050506040513d601f19601f8201168201806040525081019061293291906140c6565b90506001600160a01b03811661295b576040516329b99a9560e11b815260040160405180910390fd5b610f566001600160a01b038216337f000000000000000000000000000000000000000000000000000000000000000085612b92565b854210156129b15760405163c197e02760e01b815260040160405180910390fd5b844211156129d257604051630436381960e31b815260040160405180910390fd5b6001600160a01b03891660009081526020818152604080832087845290915290205460ff1615612a1457604051625b082f60e21b815260040160405180910390fd5b6001600160a01b03898116600081815260208181526040808320898452825291829020805460ff1916600117905581519081018e90529081019190915290891660608201526080810188905260a0810187905260c0810186905260e08101859052612a84908a9061010001611fff565b60405184906001600160a01b038b16907f98de503528ee59b575ef0c0a2576a82497bfc029a5685b209e9ec333479b10a590600090a3612ac5898989611c84565b50505050505050505050565b612ad96123a8565b6000805160206141b98339815191527f52c63247e1f47db19d5ce0460030c497f067ca4cebf71ba98eeadabe20bace03612b1384826140e3565b5060048101611c7e83826140e3565b612b2a6123a8565b61241481612bec565b6110d76123a8565b6000610c7e612b48612bfd565b8360405161190160f01b8152600281019290925260228201526042902090565b600080600080612b788686612c0c565b925092509250612b888282612c59565b5090949350505050565b604080516001600160a01b0385811660248301528416604482015260648082018490528251808303909101815260849091019091526020810180516001600160e01b03166323b872dd60e01b179052611c7e908590612d12565b612bf46123a8565b6119c881612d83565b6000612c07612db2565b905090565b60008060008351604103612c465760208401516040850151606086015160001a612c3888828585612e26565b955095509550505050612c52565b50508151600091506002905b9250925092565b6000826003811115612c6d57612c6d6141a2565b03612c76575050565b6001826003811115612c8a57612c8a6141a2565b03612ca85760405163f645eedf60e01b815260040160405180910390fd5b6002826003811115612cbc57612cbc6141a2565b03612cdd5760405163fce698f760e01b815260048101829052602401610dd1565b6003826003811115612cf157612cf16141a2565b03610f56576040516335e2f38360e21b815260048101829052602401610dd1565b600080602060008451602086016000885af180612d35576040513d6000823e3d81fd5b50506000513d91508115612d4d578060011415612d5a565b6001600160a01b0384163b155b15611c7e57604051635274afe760e01b81526001600160a01b0385166004820152602401610dd1565b612d8b6123a8565b6001600160a01b0381166117fc57604051632d618d8160e21b815260040160405180910390fd5b60007f8b73c3c69bb8fe3d512ecc4cf759cc79239f7b179b0ffacaa9a75d522b39400f612ddd612ef5565b612de5612f5f565b60408051602081019490945283019190915260608201524660808201523060a082015260c00160405160208183030381529060405280519060200120905090565b600080807f7fffffffffffffffffffffffffffffff5d576e7357a4501ddfe92f46681b20a0841115612e615750600091506003905082612eeb565b604080516000808252602082018084528a905260ff891692820192909252606081018790526080810186905260019060a0016020604051602081039080840390855afa158015612eb5573d6000803e3d6000fd5b5050604051601f1901519150506001600160a01b038116612ee157506000925060019150829050612eeb565b9250600091508190505b9450945094915050565b60006000805160206141f983398151915281612f0f61211b565b805190915015612f2757805160209091012092915050565b81548015612f36579392505050565b7fc5d2460186f7233c927e7db2dcc703c0e500b653ca82273b7bfad8045d85a470935050505090565b60006000805160206141f983398151915281612f7961215a565b805190915015612f9157805160209091012092915050565b60018201548015612f36579392505050565b60405180606001604052806000801916815260200160006001600160401b03168152602001612fe5604051806040016040528060008152602001600081525090565b905290565b60005b83811015613005578181015183820152602001612fed565b50506000910152565b60008151808452613026816020860160208601612fea565b601f01601f19169290920160200192915050565b602081526000610e69602083018461300e565b634e487b7160e01b600052604160045260246000fd5b604080519081016001600160401b03811182821017156130855761308561304d565b60405290565b604051601f8201601f191681016001600160401b03811182821017156130b3576130b361304d565b604052919050565b60006001600160401b038211156130d4576130d461304d565b50601f01601f191660200190565b600082601f8301126130f357600080fd5b8135613106613101826130bb565b61308b565b81815284602083860101111561311b57600080fd5b816020850160208301376000918101602001919091529392505050565b6001600160a01b03811681146119c857600080fd5b60008060006060848603121561316257600080fd5b83356001600160401b038082111561317957600080fd5b613185878388016130e2565b9450602086013591508082111561319b57600080fd5b506131a8868287016130e2565b92505060408401356131b981613138565b809150509250925092565b600080604083850312156131d757600080fd5b82356131e281613138565b946020939093013593505050565b600060e0828403121561320257600080fd5b50919050565b60006020828403121561321a57600080fd5b81356001600160401b0381111561323057600080fd5b6110e6848285016131f0565b8351815260208085015190820152600060a08201604060a0604085015281865180845260c08601915060c08160051b8701019350602080890160005b838110156132b75788870360bf190185528151805188528301518388018790526132a48789018261300e565b9750509382019390820190600101613278565b505087516060880152505050602085015160808501525090506110e6565b60006060828403121561320257600080fd5b60008083601f8401126132f957600080fd5b5081356001600160401b0381111561331057600080fd5b60208301915083602082850101111561332857600080fd5b9250929050565b600080600080600080600060e0888a03121561334a57600080fd5b61335489896132d5565b96506060880135955060808801356001600160401b038082111561337757600080fd5b6133838b838c016132e7565b909750955060a08a0135915061339882613138565b90935060c089013590808211156133ae57600080fd5b506133bb8a828b016132e7565b989b979a50959850939692959293505050565b6000806000606084860312156133e357600080fd5b83356133ee81613138565b925060208401356133fe81613138565b929592945050506040919091013590565b803563ffffffff8116811461342357600080fd5b919050565b6000806040838503121561343b57600080fd5b6131e28361340f565b80151581146119c857600080fd5b6000806040838503121561346557600080fd5b82356001600160401b0381111561347b57600080fd5b613487858286016131f0565b925050602083013561349881613444565b809150509250929050565b815181526020808301519082015260408101610c7e565b803561ffff8116811461342357600080fd5b600080604083850312156134df57600080fd5b6134e88361340f565b91506134f6602084016134ba565b90509250929050565b803560ff8116811461342357600080fd5b600080600080600060a0868803121561352857600080fd5b853561353381613138565b945060208601359350613548604087016134ff565b94979396509394606081013594506080013592915050565b60006020828403121561357257600080fd5b8135610e6981613138565b60008060008060a0858703121561359357600080fd5b61359d86866132d5565b935060608501356001600160401b038111156135b857600080fd5b6135c4878288016132e7565b90945092505060808501356135d881613138565b939692955090935050565b60ff60f81b881681526000602060e0602084015261360460e084018a61300e565b8381036040850152613616818a61300e565b606085018990526001600160a01b038816608086015260a0850187905284810360c08601528551808252602080880193509091019060005b8181101561366a5783518352928401929184019160010161364e565b50909c9b505050505050505050505050565b60008083601f84011261368e57600080fd5b5081356001600160401b038111156136a557600080fd5b6020830191508360208260051b850101111561332857600080fd5b600080602083850312156136d357600080fd5b82356001600160401b038111156136e957600080fd5b6136f58582860161367c565b90969095509350505050565b60006020828403121561371357600080fd5b610e698261340f565b6000806000806060858703121561373257600080fd5b61373b8561340f565b9350613749602086016134ba565b925060408501356001600160401b0381111561376457600080fd5b613770878288016132e7565b95989497509550505050565b6000806000838503608081121561379257600080fd5b84356001600160401b038111156137a857600080fd5b6137b4878288016131f0565b9450506040601f19820112156137c957600080fd5b5060208401915060608401356131b981613138565b600060c082019050835182526001600160401b0360208501511660208301526040840151613819604084018280518252602090810151910152565b5082516080830152602083015160a0830152610e69565b6000806040838503121561384357600080fd5b823561384e81613138565b9150602083013561349881613138565b60008060008060008060008060006101208a8c03121561387d57600080fd5b893561388881613138565b985060208a013561389881613138565b975060408a0135965060608a0135955060808a0135945060a08a013593506138c260c08b016134ff565b925060e08a013591506101008a013590509295985092959850929598565b6000606082840312156138f257600080fd5b610e6983836132d5565b600181811c9082168061391057607f821691505b60208210810361320257634e487b7160e01b600052602260045260246000fd5b634e487b7160e01b600052603260045260246000fd5b60008235605e1983360301811261395c57600080fd5b9190910192915050565b6000808335601e1984360301811261397d57600080fd5b8301803591506001600160401b0382111561399757600080fd5b60200191503681900382131561332857600080fd5b6000602082840312156139be57600080fd5b610e69826134ba565b601f821115611a04576000816000526020600020601f850160051c810160208610156139f05750805b601f850160051c820191505b81811015613a0f578281556001016139fc565b505050505050565b6001600160401b03831115613a2e57613a2e61304d565b613a4283613a3c83546138fc565b836139c7565b6000601f841160018114613a765760008515613a5e5750838201355b600019600387901b1c1916600186901b178355611042565b600083815260209020601f19861690835b82811015613aa75786850135825560209485019460019092019101613a87565b5086821015613ac45760001960f88860031b161c19848701351681555b505060018560011b0183555050505050565b81835281816020850137506000828201602090810191909152601f909101601f19169091010190565b60208082528181018390526000906040808401600586901b8501820187855b88811015613bd557878303603f190184528135368b9003605e19018112613b4457600080fd5b8a01606063ffffffff613b568361340f565b16855261ffff613b678984016134ba565b168886015286820135601e19833603018112613b8257600080fd5b9091018781019190356001600160401b03811115613b9f57600080fd5b803603831315613bae57600080fd5b8188870152613bc08287018285613ad6565b96890196955050509186019150600101613b1e565b509098975050505050505050565b60008085851115613bf357600080fd5b83861115613c0057600080fd5b5050820193919092039150565b60008451613c1f818460208901612fea565b8201838582376000930192835250909392505050565b6020815260006110e6602083018486613ad6565b6000823561013e1983360301811261395c57600080fd5b6001600160401b03811681146119c857600080fd5b63ffffffff613c838961340f565b1681526020880135602082015260006040890135613ca081613c60565b6001600160401b03811660408401525087606083015260e06080830152613ccb60e083018789613ad6565b6001600160a01b03861660a084015282810360c0840152613ced818587613ad6565b9a9950505050505050505050565b600060208284031215613d0d57600080fd5b81516001600160401b03811115613d2357600080fd5b8201601f81018413613d3457600080fd5b8051613d42613101826130bb565b818152856020838501011115613d5757600080fd5b611f32826020830160208601612fea565b600060408284031215613d7a57600080fd5b613d82613063565b82358152602083013560208201528091505092915050565b600060208284031215613dac57600080fd5b8135610e6981613c60565b60018060a01b038516815283602082015261ffff83166040820152608060608201526000610f3a608083018461300e565b604081526000613dfb604083018561300e565b8281036020840152611f32818561300e565b600060208284031215613e1f57600080fd5b8151610e6981613444565b6040815263ffffffff8351166040820152602083015160608201526000604084015160a06080840152613e6060e084018261300e565b90506060850151603f198483030160a0850152613e7d828261300e565b60809690960151151560c08501525050506001600160a01b039190911660209091015290565b600060408284031215613eb557600080fd5b613ebd613063565b9050815181526020820151602082015292915050565b600060408284031215613ee557600080fd5b610e698383613ea3565b6001600160f01b03198135818116916002851015613f175780818660020360031b1b83161692505b505092915050565b600060808284031215613f3157600080fd5b604051606081018181106001600160401b0382111715613f5357613f5361304d565b604052825181526020830151613f6881613c60565b6020820152613f7a8460408501613ea3565b60408201529392505050565b634e487b7160e01b600052601160045260246000fd5b600082613fb957634e487b7160e01b600052601260045260246000fd5b500490565b8082028115828204841417610c7e57610c7e613f86565b80356020831015610c7e57600019602084900360031b1b1692915050565b6001600160c01b03198135818116916008851015613f175760089490940360031b84901b1690921692915050565b6001600160401b0360c01b8560c01b16815263ffffffff60e01b8460e01b16600882015282600c8201526000825161406081602c850160208701612fea565b91909101602c0195945050505050565b80820180821115610c7e57610c7e613f86565b8481526001600160401b0360c01b8460c01b166020820152826028820152600082516140b6816048850160208701612fea565b9190910160480195945050505050565b6000602082840312156140d857600080fd5b8151610e6981613138565b81516001600160401b038111156140fc576140fc61304d565b6141108161410a84546138fc565b846139c7565b602080601f831160018114614145576000841561412d5750858301515b600019600386901b1c1916600185901b178555613a0f565b600085815260208120601f198616915b8281101561417457888601518255948401946001909101908401614155565b50858210156141925787850151600019600388901b60f8161c191681555b5050505050600190811b01905550565b634e487b7160e01b600052602160045260246000fdfe52c63247e1f47db19d5ce0460030c497f067ca4cebf71ba98eeadabe20bace0072ab1bc1039b79dc4724ffca13de82c96834302d3c7e0d4252232d4b2dd8f900a16a46d94261c7517cc8ff89f61c0ce93598e3c849801011dee649a6a557d100a2646970667358221220dda7739210259e51b9b4475bbc16c5cfd34e0e20b53e8b620cf3024133cad4b864736f6c63430008160033",
  "devdoc": {
    "errors": {
      "ECDSAInvalidSignature()": [
        {
          "details": "The signature derives the `address(0)`."
        }
      ],
      "ECDSAInvalidSignatureLength(uint256)": [
        {
          "details": "The signature has an invalid length."
        }
      ],
      "ECDSAInvalidSignatureS(bytes32)": [
        {
          "details": "The signature has an S value that is in the upper half order."
        }
      ],
      "ERC20InsufficientAllowance(address,uint256,uint256)": [
        {
          "details": "Indicates a failure with the `spender`s `allowance`. Used in transfers.",
          "params": {
            "allowance": "Amount of tokens a `spender` is allowed to operate with.",
            "needed": "Minimum amount required to perform a transfer.",
            "spender": "Address that may be allowed to operate on tokens without being their owner."
          }
        }
      ],
      "ERC20InsufficientBalance(address,uint256,uint256)": [
        {
          "details": "Indicates an error related to the current `balance` of a `sender`. Used in transfers.",
          "params": {
            "balance": "Current balance for the interacting account.",
            "needed": "Minimum amount required to perform a transfer.",
            "sender": "Address whose tokens are being transferred."
          }
        }
      ],
      "ERC20InvalidApprover(address)": [
        {
          "details": "Indicates a failure with the `approver` of a token to be approved. Used in approvals.",
          "params": {
            "approver": "Address initiating an approval operation."
          }
        }
      ],
      "ERC20InvalidReceiver(address)": [
        {
          "details": "Indicates a failure with the token `receiver`. Used in transfers.",
          "params": {
            "receiver": "Address to which tokens are being transferred."
          }
        }
      ],
      "ERC20InvalidSender(address)": [
        {
          "details": "Indicates a failure with the token `sender`. Used in transfers.",
          "params": {
            "sender": "Address whose tokens are being transferred."
          }
        }
      ],
      "ERC20InvalidSpender(address)": [
        {
          "details": "Indicates a failure with the `spender` to be approved. Used in approvals.",
          "params": {
            "spender": "Address that may be allowed to operate on tokens without being their owner."
          }
        }
      ],
      "InvalidInitialization()": [
        {
          "details": "The contract is already initialized."
        }
      ],
      "NotInitializing()": [
        {
          "details": "The contract is not initializing."
        }
      ],
      "OwnableInvalidOwner(address)": [
        {
          "details": "The owner is not a valid owner account. (eg. `address(0)`)"
        }
      ],
      "OwnableUnauthorizedAccount(address)": [
        {
          "details": "The caller account is not authorized to perform an operation."
        }
      ],
      "SafeERC20FailedOperation(address)": [
        {
          "details": "An operation with an ERC-20 token failed."
        }
      ]
    },
    "events": {
      "Approval(address,address,uint256)": {
        "details": "Emitted when the allowance of a `spender` for an `owner` is set by a call to {approve}. `value` is the new allowance."
      },
      "EIP712DomainChanged()": {
        "details": "MAY be emitted to signal that the domain could have changed."
      },
      "Initialized(uint64)": {
        "details": "Triggered when the contract has been initialized or reinitialized."
      },
      "PreCrimeSet(address)": {
        "details": "Emitted when the preCrime contract address is set.",
        "params": {
          "preCrimeAddress": "The address of the preCrime contract."
        }
      },
      "Transfer(address,address,uint256)": {
        "details": "Emitted when `value` tokens are moved from one account (`from`) to another (`to`). Note that `value` may be zero."
      }
    },
    "kind": "dev",
    "methods": {
      "allowInitializePath((uint32,bytes32,uint64))": {
        "details": "This indicates to the endpoint that the OApp has enabled msgs for this particular path to be received.This defaults to assuming if a peer has been set, its initialized. Can be overridden by the OApp if there is other logic to determine this.",
        "params": {
          "origin": "The origin information containing the source endpoint and sender address."
        },
        "returns": {
          "_0": "Whether the path has been initialized."
        }
      },
      "allowance(address,address)": {
        "details": "See {IERC20-allowance}."
      },
      "approvalRequired()": {
        "details": "In the case of OFT where the contract IS the token, approval is NOT required.",
        "returns": {
          "_0": "requiresApproval Needs approval of the underlying token implementation."
        }
      },
      "approve(address,uint256)": {
        "details": "See {IERC20-approve}. NOTE: If `value` is the maximum `uint256`, the allowance is not updated on `transferFrom`. This is semantically equivalent to an infinite approval. Requirements: - `spender` cannot be the zero address."
      },
      "authorizationState(address,bytes32)": {
        "details": "Nonces are randomly generated 32-byte data unique to the authorizer's address",
        "params": {
          "authorizer": "Authorizer's address",
          "nonce": "Nonce of the authorization"
        },
        "returns": {
          "_0": "True if the nonce is used"
        }
      },
      "balanceOf(address)": {
        "details": "See {IERC20-balanceOf}."
      },
      "combineOptions(uint32,uint16,bytes)": {
        "details": "If there is an enforced lzReceive option: - {gasLimit: 200k, msg.value: 1 ether} AND a caller supplies a lzReceive option: {gasLimit: 100k, msg.value: 0.5 ether} - The resulting options will be {gasLimit: 300k, msg.value: 1.5 ether} when the message is executed on the remote lzReceive() function.This presence of duplicated options is handled off-chain in the verifier/executor.",
        "params": {
          "_eid": "The endpoint ID.",
          "_extraOptions": "Additional options passed by the caller.",
          "_msgType": "The OAPP message type."
        },
        "returns": {
          "_0": "options The combination of caller specified options AND enforced options."
        }
      },
      "decimals()": {
        "details": "Returns the number of decimals used to get its user representation. For example, if `decimals` equals `2`, a balance of `505` tokens should be displayed to a user as `5.05` (`505 / 10 ** 2`). Tokens usually opt for a value of 18, imitating the relationship between Ether and Wei. This is the default value returned by this function, unless it's overridden. NOTE: This information is only used for _display_ purposes: it in no way affects any of the arithmetic of the contract, including {IERC20-balanceOf} and {IERC20-transfer}."
      },
      "eip712Domain()": {
        "details": "See {IERC-5267}."
      },
      "isComposeMsgSender((uint32,bytes32,uint64),bytes,address)": {
        "details": "_origin The origin information containing the source endpoint and sender address.  - srcEid: The source chain endpoint ID.  - sender: The sender address on the src chain.  - nonce: The nonce of the message._message The lzReceive payload.Applications can optionally choose to implement separate composeMsg senders that are NOT the bridging layer.The default sender IS the OAppReceiver implementer.",
        "params": {
          "_sender": "The sender address."
        },
        "returns": {
          "_0": "isSender Is a valid sender."
        }
      },
      "isPeer(uint32,bytes32)": {
        "details": "Check if the peer is considered 'trusted' by the OApp.Enables OAppPreCrimeSimulator to check whether a potential Inbound Packet is from a trusted source.",
        "params": {
          "_eid": "The endpoint ID to check.",
          "_peer": "The peer to check."
        },
        "returns": {
          "_0": "Whether the peer passed is considered 'trusted' by the OApp."
        }
      },
      "lzReceive((uint32,bytes32,uint64),bytes32,bytes,address,bytes)": {
        "details": "Entry point for receiving messages or packets from the endpoint.Entry point for receiving msg/packet from the LayerZero endpoint.",
        "params": {
          "_executor": "The address of the executor for the received message.",
          "_extraData": "Additional arbitrary data provided by the corresponding executor.",
          "_guid": "The unique identifier for the received LayerZero message.",
          "_message": "The payload of the received message.",
          "_origin": "The origin information containing the source endpoint and sender address.  - srcEid: The source chain endpoint ID.  - sender: The sender address on the src chain.  - nonce: The nonce of the message."
        }
      },
      "lzReceiveAndRevert(((uint32,bytes32,uint64),uint32,address,bytes32,uint256,address,bytes,bytes)[])": {
        "details": "Interface for pre-crime simulations. Always reverts at the end with the simulation results.WARNING: MUST revert at the end with the simulation results.Gives the preCrime implementation the ability to mock sending packets to the lzReceive function, WITHOUT actually executing them.",
        "params": {
          "_packets": "An array of InboundPacket objects representing received packets to be delivered."
        }
      },
      "lzReceiveSimulate((uint32,bytes32,uint64),bytes32,bytes,address,bytes)": {
        "details": "Is effectively an internal function because msg.sender must be address(this). Allows resetting the call stack for 'internal' calls.",
        "params": {
          "_executor": "The executor address for the packet.",
          "_extraData": "Additional data for the packet.",
          "_guid": "The unique identifier of the packet.",
          "_message": "The message payload of the packet.",
          "_origin": "The origin information containing the source endpoint and sender address.  - srcEid: The source chain endpoint ID.  - sender: The sender address on the src chain.  - nonce: The nonce of the message."
        }
      },
      "mint(address,uint256)": {
        "details": "Below functions are allowed to use by multi-sig-wallet only "
      },
      "name()": {
        "details": "Returns the name of the token."
      },
      "nextNonce(uint32,bytes32)": {
        "details": "_srcEid The source endpoint ID._sender The sender address.The path nonce starts from 1. If 0 is returned it means that there is NO nonce ordered enforcement.Is required by the off-chain executor to determine the OApp expects msg execution is ordered.This is also enforced by the OApp.By default this is NOT enabled. ie. nextNonce is hardcoded to return 0.",
        "returns": {
          "nonce": "The next nonce."
        }
      },
      "oApp()": {
        "details": "Retrieves the address of the OApp contract.The simulator contract is the base contract for the OApp by default.If the simulator is a separate contract, override this function.",
        "returns": {
          "_0": "The address of the OApp contract."
        }
      },
      "oAppVersion()": {
        "returns": {
          "receiverVersion": "The version of the OAppReceiver.sol implementation.",
          "senderVersion": "The version of the OAppSender.sol implementation."
        }
      },
      "oftVersion()": {
        "details": "interfaceId: This specific interface ID is '0x02e49c2c'.version: Indicates a cross-chain compatible msg encoding with other OFTs.If a new feature is added to the OFT cross-chain msg encoding, the version will be incremented. ie. localOFT version(x,1) CAN send messages to remoteOFT version(x,1)",
        "returns": {
          "interfaceId": "The interface ID.",
          "version": "The version."
        }
      },
      "owner()": {
        "details": "Returns the address of the current owner."
      },
      "peers(uint32)": {
        "params": {
          "_eid": "The endpoint ID."
        },
        "returns": {
          "_0": "peer The address of the peer associated with the specified endpoint."
        }
      },
      "preCrime()": {
        "details": "Retrieves the address of the preCrime contract implementation.",
        "returns": {
          "_0": "The address of the preCrime contract."
        }
      },
      "quoteOFT((uint32,bytes32,uint256,uint256,bytes,bytes,bytes))": {
        "params": {
          "_sendParam": "The parameters for the send operation."
        },
        "returns": {
          "oftFeeDetails": "The details of OFT fees.",
          "oftLimit": "The OFT limit information.",
          "oftReceipt": "The OFT receipt information."
        }
      },
      "quoteSend((uint32,bytes32,uint256,uint256,bytes,bytes,bytes),bool)": {
        "details": "MessagingFee: LayerZero msg fee  - nativeFee: The native fee.  - lzTokenFee: The lzToken fee.",
        "params": {
          "_payInLzToken": "Flag indicating whether the caller is paying in the LZ token.",
          "_sendParam": "The parameters for the send() operation."
        },
        "returns": {
          "msgFee": "The calculated LayerZero messaging fee from the send() operation."
        }
      },
      "renounceOwnership()": {
        "details": "Leaves the contract without owner. It will not be possible to call `onlyOwner` functions. Can only be called by the current owner. NOTE: Renouncing ownership will leave the contract without an owner, thereby disabling any functionality that is only available to the owner."
      },
      "send((uint32,bytes32,uint256,uint256,bytes,bytes,bytes),(uint256,uint256),address)": {
        "details": "Executes the send operation.MessagingReceipt: LayerZero msg receipt  - guid: The unique identifier for the sent message.  - nonce: The nonce of the sent message.  - fee: The LayerZero fee incurred for the message.",
        "params": {
          "_fee": "The calculated fee for the send() operation.      - nativeFee: The native fee.      - lzTokenFee: The lzToken fee.",
          "_refundAddress": "The address to receive any excess funds.",
          "_sendParam": "The parameters for the send operation."
        },
        "returns": {
          "msgReceipt": "The receipt for the send operation.",
          "oftReceipt": "The OFT receipt information."
        }
      },
      "setDelegate(address)": {
        "details": "Only the owner/admin of the OApp can call this function.Provides the ability for a delegate to set configs, on behalf of the OApp, directly on the Endpoint contract.",
        "params": {
          "_delegate": "The address of the delegate to be set."
        }
      },
      "setEnforcedOptions((uint32,uint16,bytes)[])": {
        "details": "Sets the enforced options for specific endpoint and message type combinations.Only the owner/admin of the OApp can call this function.Provides a way for the OApp to enforce things like paying for PreCrime, AND/OR minimum dst lzReceive gas amounts etc.These enforced options can vary as the potential options/execution on the remote may differ as per the msgType. eg. Amount of lzReceive() gas necessary to deliver a lzCompose() message adds overhead you dont want to pay if you are only making a standard LayerZero message ie. lzReceive() WITHOUT sendCompose().",
        "params": {
          "_enforcedOptions": "An array of EnforcedOptionParam structures specifying enforced options."
        }
      },
      "setMsgInspector(address)": {
        "details": "Sets the message inspector address for the OFT.This is an optional contract that can be used to inspect both 'message' and 'options'.Set it to address(0) to disable it, or set it to a contract address to enable it.",
        "params": {
          "_msgInspector": "The address of the message inspector."
        }
      },
      "setPeer(uint32,bytes32)": {
        "details": "Only the owner/admin of the OApp can call this function.Indicates that the peer is trusted to send LayerZero messages to this OApp.Set this to bytes32(0) to remove the peer address.Peer is a bytes32 to accommodate non-evm chains.",
        "params": {
          "_eid": "The endpoint ID.",
          "_peer": "The address of the peer to be associated with the corresponding endpoint."
        }
      },
      "setPreCrime(address)": {
        "details": "Sets the preCrime contract address.",
        "params": {
          "_preCrime": "The address of the preCrime contract."
        }
      },
      "sharedDecimals()": {
        "details": "Retrieves the shared decimals of the OFT.Sets an implicit cap on the amount of tokens, over uint64.max() will need some sort of outbound cap / totalSupply cap Lowest common decimal denominator between chains. Defaults to 6 decimal places to provide up to 18,446,744,073,709.551615 units (max uint64). For tokens exceeding this totalSupply(), they will need to override the sharedDecimals function with something smaller. ie. 4 sharedDecimals would be 1,844,674,407,370,955.1615",
        "returns": {
          "_0": "The shared decimals of the OFT."
        }
      },
      "symbol()": {
        "details": "Returns the symbol of the token, usually a shorter version of the name."
      },
      "token()": {
        "details": "Retrieves the address of the underlying ERC20 implementation.In the case of OFT, address(this) and erc20 are the same contract.",
        "returns": {
          "_0": "The address of the OFT token."
        }
      },
      "totalSupply()": {
        "details": "See {IERC20-totalSupply}."
      },
      "transfer(address,uint256)": {
        "details": "See {IERC20-transfer}. Requirements: - `to` cannot be the zero address. - the caller must have a balance of at least `value`."
      },
      "transferFrom(address,address,uint256)": {
        "details": "See {IERC20-transferFrom}. Skips emitting an {Approval} event indicating an allowance update. This is not required by the ERC. See {xref-ERC20-_approve-address-address-uint256-bool-}[_approve]. NOTE: Does not update the allowance if the current allowance is the maximum `uint256`. Requirements: - `from` and `to` cannot be the zero address. - `from` must have a balance of at least `value`. - the caller must have allowance for ``from``'s tokens of at least `value`."
      },
      "transferOwnership(address)": {
        "details": "Transfers ownership of the contract to a new account (`newOwner`). Can only be called by the current owner."
      }
    },
    "version": 1
  },
  "userdoc": {
    "kind": "user",
    "methods": {
      "allowInitializePath((uint32,bytes32,uint64))": {
        "notice": "Checks if the path initialization is allowed based on the provided origin."
      },
      "approvalRequired()": {
        "notice": "Indicates whether the OFT contract requires approval of the 'token()' to send."
      },
      "authorizationState(address,bytes32)": {
        "notice": "Returns the state of an authorization"
      },
      "combineOptions(uint32,uint16,bytes)": {
        "notice": "Combines options for a given endpoint and message type."
      },
      "endpoint()": {
        "notice": "Retrieves the LayerZero endpoint associated with the OApp."
      },
      "isComposeMsgSender((uint32,bytes32,uint64),bytes,address)": {
        "notice": "Indicates whether an address is an approved composeMsg sender to the Endpoint."
      },
      "nextNonce(uint32,bytes32)": {
        "notice": "Retrieves the next nonce for a given source endpoint and sender address."
      },
      "oAppVersion()": {
        "notice": "Retrieves the OApp version information."
      },
      "oftVersion()": {
        "notice": "Retrieves interfaceID and the version of the OFT."
      },
      "peers(uint32)": {
        "notice": "Returns the peer address (OApp instance) associated with a specific endpoint."
      },
      "quoteOFT((uint32,bytes32,uint256,uint256,bytes,bytes,bytes))": {
        "notice": "Provides a quote for OFT-related operations."
      },
      "quoteSend((uint32,bytes32,uint256,uint256,bytes,bytes,bytes),bool)": {
        "notice": "Provides a quote for the send() operation."
      },
      "setDelegate(address)": {
        "notice": "Sets the delegate address for the OApp."
      },
      "setPeer(uint32,bytes32)": {
        "notice": "Sets the peer address (OApp instance) for a corresponding endpoint."
      }
    },
    "version": 1
  },
  "storageLayout": {
    "storage": [
      {
        "astId": 12055,
        "contract": "contracts/wXTM.sol:wXTM",
        "label": "_authorizationStates",
        "offset": 0,
        "slot": "0",
        "type": "t_mapping(t_address,t_mapping(t_bytes32,t_bool))"
      }
    ],
    "types": {
      "t_address": {
        "encoding": "inplace",
        "label": "address",
        "numberOfBytes": "20"
      },
      "t_bool": {
        "encoding": "inplace",
        "label": "bool",
        "numberOfBytes": "1"
      },
      "t_bytes32": {
        "encoding": "inplace",
        "label": "bytes32",
        "numberOfBytes": "32"
      },
      "t_mapping(t_address,t_mapping(t_bytes32,t_bool))": {
        "encoding": "mapping",
        "key": "t_address",
        "label": "mapping(address => mapping(bytes32 => bool))",
        "numberOfBytes": "32",
        "value": "t_mapping(t_bytes32,t_bool)"
      },
      "t_mapping(t_bytes32,t_bool)": {
        "encoding": "mapping",
        "key": "t_bytes32",
        "label": "mapping(bytes32 => bool)",
        "numberOfBytes": "32",
        "value": "t_bool"
      }
    }
  }
}