{
  "address": "0x52610316B50238d0f6259691762179A3d8E87908",
  "abi": [
    {
      "inputs": [
        {
          "internalType": "address",
          "name": "_wXTM",
          "type": "address"
        },
        {
          "internalType": "address",
          "name": "_delegate",
          "type": "address"
        }
      ],
      "stateMutability": "nonpayable",
      "type": "constructor"
    },
    {
      "inputs": [
        {
          "internalType": "address",
          "name": "owner",
          "type": "address"
        }
      ],
      "name": "OwnableInvalidOwner",
      "type": "error"
    },
    {
      "inputs": [
        {
          "internalType": "address",
          "name": "account",
          "type": "address"
        }
      ],
      "name": "OwnableUnauthorizedAccount",
      "type": "error"
    },
    {
      "anonymous": false,
      "inputs": [
        {
          "indexed": true,
          "internalType": "address",
          "name": "previousOwner",
          "type": "address"
        },
        {
          "indexed": true,
          "internalType": "address",
          "name": "newOwner",
          "type": "address"
        }
      ],
      "name": "OwnershipTransferred",
      "type": "event"
    },
    {
      "anonymous": false,
      "inputs": [
        {
          "indexed": true,
          "internalType": "address",
          "name": "from",
          "type": "address"
        },
        {
          "indexed": false,
          "internalType": "string",
          "name": "targetTariAddress",
          "type": "string"
        },
        {
          "indexed": true,
          "internalType": "uint256",
          "name": "amount",
          "type": "uint256"
        }
      ],
      "name": "TokensUnwrapped",
      "type": "event"
    },
    {
      "inputs": [
        {
          "internalType": "string",
          "name": "targetTariAddress",
          "type": "string"
        },
        {
          "internalType": "uint256",
          "name": "value",
          "type": "uint256"
        }
      ],
      "name": "bridgeToTari",
      "outputs": [],
      "stateMutability": "nonpayable",
      "type": "function"
    },
    {
      "inputs": [
        {
          "internalType": "string",
          "name": "targetTariAddress",
          "type": "string"
        },
        {
          "internalType": "uint256",
          "name": "value",
          "type": "uint256"
        },
        {
          "internalType": "uint256",
          "name": "validAfter",
          "type": "uint256"
        },
        {
          "internalType": "uint256",
          "name": "validBefore",
          "type": "uint256"
        },
        {
          "internalType": "bytes32",
          "name": "nonce",
          "type": "bytes32"
        },
        {
          "internalType": "uint8",
          "name": "v",
          "type": "uint8"
        },
        {
          "internalType": "bytes32",
          "name": "r",
          "type": "bytes32"
        },
        {
          "internalType": "bytes32",
          "name": "s",
          "type": "bytes32"
        }
      ],
      "name": "bridgeToTariWithAuthorization",
      "outputs": [],
      "stateMutability": "nonpayable",
      "type": "function"
    },
    {
      "inputs": [],
      "name": "owner",
      "outputs": [
        {
          "internalType": "address",
          "name": "",
          "type": "address"
        }
      ],
      "stateMutability": "view",
      "type": "function"
    },
    {
      "inputs": [],
      "name": "renounceOwnership",
      "outputs": [],
      "stateMutability": "nonpayable",
      "type": "function"
    },
    {
      "inputs": [
        {
          "internalType": "address",
          "name": "newOwner",
          "type": "address"
        }
      ],
      "name": "transferOwnership",
      "outputs": [],
      "stateMutability": "nonpayable",
      "type": "function"
    }
  ],
  "transactionHash": "0x9efe65401f851a471b6e8aed32043cc02d2ff06f74018554b6e1e62941905fde",
  "args": [
    "0x4A7cC39b7E7b5F39B6Dc4aCa4098A02F9Ecde3B0",
    "0x50e2a33B9E04e78bF1F1d1F94b0be95Be63C23e7"
  ],
  "numDeployments": 1,
  "solcInputHash": "5fa7431c54c1a400eb86dfac617ec4f9",
  "bytecode": "0x60a060405234801561001057600080fd5b5060405161080738038061080783398101604081905261002f916100e6565b806001600160a01b03811661005e57604051631e4fbdf760e01b81526000600482015260240160405180910390fd5b6100678161007a565b50506001600160a01b0316608052610119565b600080546001600160a01b038381166001600160a01b0319831681178455604051919092169283917f8be0079c531659141344cd1fd0a4f28419497f9722a3daafe3b4186f6b6457e09190a35050565b80516001600160a01b03811681146100e157600080fd5b919050565b600080604083850312156100f957600080fd5b610102836100ca565b9150610110602084016100ca565b90509250929050565b6080516106bf6101486000396000818160e0015281816101720152818161027f01526102fe01526106bf6000f3fe608060405234801561001057600080fd5b50600436106100575760003560e01c806361d1e52e1461005c578063715018a6146100715780638da5cb5b14610079578063ea723be214610098578063f2fde38b146100ab575b600080fd5b61006f61006a366004610513565b6100be565b005b61006f61021c565b600054604080516001600160a01b039092168252519081900360200190f35b61006f6100a6366004610558565b610230565b61006f6100b93660046105e8565b6103b0565b6040516323b872dd60e01b8152336004820152306024820152604481018290527f00000000000000000000000000000000000000000000000000000000000000006001600160a01b0316906323b872dd906064016020604051808303816000875af1158015610131573d6000803e3d6000fd5b505050506040513d601f19601f820116820180604052508101906101559190610618565b50604051632770a7eb60e21b8152306004820152602481018290527f00000000000000000000000000000000000000000000000000000000000000006001600160a01b031690639dc29fac90604401600060405180830381600087803b1580156101be57600080fd5b505af11580156101d2573d6000803e3d6000fd5b5050505080336001600160a01b03167f5e974964636f3e9c92610e97fe82ff029af00846529a2c93194b9671c43a93a784604051610210919061063a565b60405180910390a35050565b6102246103f3565b61022e6000610420565b565b6040516377aadf6360e11b815233600482015230602482015260448101889052606481018790526084810186905260a4810185905260ff841660c482015260e4810183905261010481018290527f00000000000000000000000000000000000000000000000000000000000000006001600160a01b03169063ef55bec69061012401600060405180830381600087803b1580156102cc57600080fd5b505af11580156102e0573d6000803e3d6000fd5b5050604051632770a7eb60e21b8152306004820152602481018a90527f00000000000000000000000000000000000000000000000000000000000000006001600160a01b03169250639dc29fac9150604401600060405180830381600087803b15801561034c57600080fd5b505af1158015610360573d6000803e3d6000fd5b5050505086336001600160a01b03167f5e974964636f3e9c92610e97fe82ff029af00846529a2c93194b9671c43a93a78a60405161039e919061063a565b60405180910390a35050505050505050565b6103b86103f3565b6001600160a01b0381166103e757604051631e4fbdf760e01b8152600060048201526024015b60405180910390fd5b6103f081610420565b50565b6000546001600160a01b0316331461022e5760405163118cdaa760e01b81523360048201526024016103de565b600080546001600160a01b038381166001600160a01b0319831681178455604051919092169283917f8be0079c531659141344cd1fd0a4f28419497f9722a3daafe3b4186f6b6457e09190a35050565b634e487b7160e01b600052604160045260246000fd5b600082601f83011261049757600080fd5b813567ffffffffffffffff808211156104b2576104b2610470565b604051601f8301601f19908116603f011681019082821181831017156104da576104da610470565b816040528381528660208588010111156104f357600080fd5b836020870160208301376000602085830101528094505050505092915050565b6000806040838503121561052657600080fd5b823567ffffffffffffffff81111561053d57600080fd5b61054985828601610486565b95602094909401359450505050565b600080600080600080600080610100898b03121561057557600080fd5b883567ffffffffffffffff81111561058c57600080fd5b6105988b828c01610486565b9850506020890135965060408901359550606089013594506080890135935060a089013560ff811681146105cb57600080fd5b979a969950949793969295929450505060c08201359160e0013590565b6000602082840312156105fa57600080fd5b81356001600160a01b038116811461061157600080fd5b9392505050565b60006020828403121561062a57600080fd5b8151801515811461061157600080fd5b60006020808352835180602085015260005b818110156106685785810183015185820160400152820161064c565b506000604082860101526040601f19601f830116850101925050509291505056fea264697066735822122018a76d543c1e326552606b759ed6810f18f7c25086a8e7df7c58a3a07c85d0de64736f6c63430008160033",
  "devdoc": {
    "errors": {
      "OwnableInvalidOwner(address)": [
        {
          "details": "The owner is not a valid owner account. (eg. `address(0)`)"
        }
      ],
      "OwnableUnauthorizedAccount(address)": [
        {
          "details": "The caller account is not authorized to perform an operation."
        }
      ]
    },
    "kind": "dev",
    "methods": {
      "owner()": {
        "details": "Returns the address of the current owner."
      },
      "renounceOwnership()": {
        "details": "Leaves the contract without owner. It will not be possible to call `onlyOwner` functions. Can only be called by the current owner. NOTE: Renouncing ownership will leave the contract without an owner, thereby disabling any functionality that is only available to the owner."
      },
      "transferOwnership(address)": {
        "details": "Transfers ownership of the contract to a new account (`newOwner`). Can only be called by the current owner."
      }
    },
    "version": 1
  },
  "userdoc": {
    "kind": "user",
    "methods": {},
    "version": 1
  },
  "storageLayout": {
    "storage": [
      {
        "astId": 5886,
        "contract": "contracts/wXTMBridge.sol:wXTMBridge",
        "label": "_owner",
        "offset": 0,
        "slot": "0",
        "type": "t_address"
      }
    ],
    "types": {
      "t_address": {
        "encoding": "inplace",
        "label": "address",
        "numberOfBytes": "20"
      }
    }
  }
}