{
  "address": "0x0eB085Ec424702a4866C69230226E83285B7DAE2",
  "abi": [
    {
      "inputs": [
        {
          "internalType": "address",
          "name": "_wXTM",
          "type": "address"
        },
        {
          "internalType": "address",
          "name": "_delegate",
          "type": "address"
        }
      ],
      "stateMutability": "nonpayable",
      "type": "constructor"
    },
    {
      "inputs": [
        {
          "internalType": "address",
          "name": "owner",
          "type": "address"
        }
      ],
      "name": "OwnableInvalidOwner",
      "type": "error"
    },
    {
      "inputs": [
        {
          "internalType": "address",
          "name": "account",
          "type": "address"
        }
      ],
      "name": "OwnableUnauthorizedAccount",
      "type": "error"
    },
    {
      "anonymous": false,
      "inputs": [
        {
          "indexed": true,
          "internalType": "address",
          "name": "previousOwner",
          "type": "address"
        },
        {
          "indexed": true,
          "internalType": "address",
          "name": "newOwner",
          "type": "address"
        }
      ],
      "name": "OwnershipTransferred",
      "type": "event"
    },
    {
      "anonymous": false,
      "inputs": [
        {
          "indexed": true,
          "internalType": "address",
          "name": "from",
          "type": "address"
        },
        {
          "indexed": false,
          "internalType": "string",
          "name": "targetTariAddress",
          "type": "string"
        },
        {
          "indexed": true,
          "internalType": "uint256",
          "name": "amount",
          "type": "uint256"
        }
      ],
      "name": "TokensUnwrapped",
      "type": "event"
    },
    {
      "inputs": [
        {
          "internalType": "string",
          "name": "targetTariAddress",
          "type": "string"
        },
        {
          "internalType": "uint256",
          "name": "value",
          "type": "uint256"
        }
      ],
      "name": "bridgeToTari",
      "outputs": [],
      "stateMutability": "nonpayable",
      "type": "function"
    },
    {
      "inputs": [
        {
          "internalType": "string",
          "name": "targetTariAddress",
          "type": "string"
        },
        {
          "internalType": "uint256",
          "name": "value",
          "type": "uint256"
        },
        {
          "internalType": "uint256",
          "name": "validAfter",
          "type": "uint256"
        },
        {
          "internalType": "uint256",
          "name": "validBefore",
          "type": "uint256"
        },
        {
          "internalType": "bytes32",
          "name": "nonce",
          "type": "bytes32"
        },
        {
          "internalType": "uint8",
          "name": "v",
          "type": "uint8"
        },
        {
          "internalType": "bytes32",
          "name": "r",
          "type": "bytes32"
        },
        {
          "internalType": "bytes32",
          "name": "s",
          "type": "bytes32"
        }
      ],
      "name": "bridgeToTariWithAuthorization",
      "outputs": [],
      "stateMutability": "nonpayable",
      "type": "function"
    },
    {
      "inputs": [],
      "name": "owner",
      "outputs": [
        {
          "internalType": "address",
          "name": "",
          "type": "address"
        }
      ],
      "stateMutability": "view",
      "type": "function"
    },
    {
      "inputs": [],
      "name": "renounceOwnership",
      "outputs": [],
      "stateMutability": "nonpayable",
      "type": "function"
    },
    {
      "inputs": [
        {
          "internalType": "address",
          "name": "newOwner",
          "type": "address"
        }
      ],
      "name": "transferOwnership",
      "outputs": [],
      "stateMutability": "nonpayable",
      "type": "function"
    }
  ],
  "transactionHash": "0x9516edf6161bc338ee3e7a5a5b36fb878b8f5de0cf6ee4338df7df0b588613e3",
  "args": [
    "0xcBe79AB990E0Ab45Cb9148db7d434477E49b7374",
    "0xaFf25Ffc5Fe112dF7dB383BC10122e90c4FacC6e"
  ],
  "numDeployments": 2,
  "solcInputHash": "a3b0145c22869f276e352151c6066eaf",
  "bytecode": "0x60a060405234801561001057600080fd5b506040516107fb3803806107fb83398101604081905261002f916100e6565b806001600160a01b03811661005e57604051631e4fbdf760e01b81526000600482015260240160405180910390fd5b6100678161007a565b50506001600160a01b0316608052610119565b600080546001600160a01b038381166001600160a01b0319831681178455604051919092169283917f8be0079c531659141344cd1fd0a4f28419497f9722a3daafe3b4186f6b6457e09190a35050565b80516001600160a01b03811681146100e157600080fd5b919050565b600080604083850312156100f957600080fd5b610102836100ca565b9150610110602084016100ca565b90509250929050565b6080516106b36101486000396000818160e00152818161016c0152818161027901526102f201526106b36000f3fe608060405234801561001057600080fd5b50600436106100575760003560e01c806361d1e52e1461005c578063715018a6146100715780638da5cb5b14610079578063ea723be214610098578063f2fde38b146100ab575b600080fd5b61006f61006a366004610507565b6100be565b005b61006f610216565b600054604080516001600160a01b039092168252519081900360200190f35b61006f6100a636600461054c565b61022a565b61006f6100b93660046105dc565b6103a4565b6040516323b872dd60e01b8152336004820152306024820152604481018290527f00000000000000000000000000000000000000000000000000000000000000006001600160a01b0316906323b872dd906064016020604051808303816000875af1158015610131573d6000803e3d6000fd5b505050506040513d601f19601f82011682018060405250810190610155919061060c565b50604051630852cd8d60e31b8152600481018290527f00000000000000000000000000000000000000000000000000000000000000006001600160a01b0316906342966c6890602401600060405180830381600087803b1580156101b857600080fd5b505af11580156101cc573d6000803e3d6000fd5b5050505080336001600160a01b03167f5e974964636f3e9c92610e97fe82ff029af00846529a2c93194b9671c43a93a78460405161020a919061062e565b60405180910390a35050565b61021e6103e7565b6102286000610414565b565b6040516377aadf6360e11b815233600482015230602482015260448101889052606481018790526084810186905260a4810185905260ff841660c482015260e4810183905261010481018290527f00000000000000000000000000000000000000000000000000000000000000006001600160a01b03169063ef55bec69061012401600060405180830381600087803b1580156102c657600080fd5b505af11580156102da573d6000803e3d6000fd5b5050604051630852cd8d60e31b8152600481018a90527f00000000000000000000000000000000000000000000000000000000000000006001600160a01b031692506342966c689150602401600060405180830381600087803b15801561034057600080fd5b505af1158015610354573d6000803e3d6000fd5b5050505086336001600160a01b03167f5e974964636f3e9c92610e97fe82ff029af00846529a2c93194b9671c43a93a78a604051610392919061062e565b60405180910390a35050505050505050565b6103ac6103e7565b6001600160a01b0381166103db57604051631e4fbdf760e01b8152600060048201526024015b60405180910390fd5b6103e481610414565b50565b6000546001600160a01b031633146102285760405163118cdaa760e01b81523360048201526024016103d2565b600080546001600160a01b038381166001600160a01b0319831681178455604051919092169283917f8be0079c531659141344cd1fd0a4f28419497f9722a3daafe3b4186f6b6457e09190a35050565b634e487b7160e01b600052604160045260246000fd5b600082601f83011261048b57600080fd5b813567ffffffffffffffff808211156104a6576104a6610464565b604051601f8301601f19908116603f011681019082821181831017156104ce576104ce610464565b816040528381528660208588010111156104e757600080fd5b836020870160208301376000602085830101528094505050505092915050565b6000806040838503121561051a57600080fd5b823567ffffffffffffffff81111561053157600080fd5b61053d8582860161047a565b95602094909401359450505050565b600080600080600080600080610100898b03121561056957600080fd5b883567ffffffffffffffff81111561058057600080fd5b61058c8b828c0161047a565b9850506020890135965060408901359550606089013594506080890135935060a089013560ff811681146105bf57600080fd5b979a969950949793969295929450505060c08201359160e0013590565b6000602082840312156105ee57600080fd5b81356001600160a01b038116811461060557600080fd5b9392505050565b60006020828403121561061e57600080fd5b8151801515811461060557600080fd5b60006020808352835180602085015260005b8181101561065c57858101830151858201604001528201610640565b506000604082860101526040601f19601f830116850101925050509291505056fea2646970667358221220a45446073a815669a77249e7b76561c208cbe5e2a2c59db72871f080d97cc0e064736f6c63430008160033",
  "devdoc": {
    "errors": {
      "OwnableInvalidOwner(address)": [
        {
          "details": "The owner is not a valid owner account. (eg. `address(0)`)"
        }
      ],
      "OwnableUnauthorizedAccount(address)": [
        {
          "details": "The caller account is not authorized to perform an operation."
        }
      ]
    },
    "kind": "dev",
    "methods": {
      "owner()": {
        "details": "Returns the address of the current owner."
      },
      "renounceOwnership()": {
        "details": "Leaves the contract without owner. It will not be possible to call `onlyOwner` functions. Can only be called by the current owner. NOTE: Renouncing ownership will leave the contract without an owner, thereby disabling any functionality that is only available to the owner."
      },
      "transferOwnership(address)": {
        "details": "Transfers ownership of the contract to a new account (`newOwner`). Can only be called by the current owner."
      }
    },
    "version": 1
  },
  "userdoc": {
    "kind": "user",
    "methods": {},
    "version": 1
  },
  "storageLayout": {
    "storage": [
      {
        "astId": 5886,
        "contract": "contracts/wXTMBridge.sol:wXTMBridge",
        "label": "_owner",
        "offset": 0,
        "slot": "0",
        "type": "t_address"
      }
    ],
    "types": {
      "t_address": {
        "encoding": "inplace",
        "label": "address",
        "numberOfBytes": "20"
      }
    }
  }
}