{
  "address": "0xa939405a7Edb3fF0585a3Ad213228057a82B579D",
  "abi": [
    {
      "inputs": [],
      "stateMutability": "nonpayable",
      "type": "constructor"
    },
    {
      "inputs": [],
      "name": "InsufficientAmount",
      "type": "error"
    },
    {
      "inputs": [],
      "name": "InvalidInitialization",
      "type": "error"
    },
    {
      "inputs": [],
      "name": "NotInitializing",
      "type": "error"
    },
    {
      "inputs": [
        {
          "internalType": "address",
          "name": "token",
          "type": "address"
        }
      ],
      "name": "SafeERC20FailedOperation",
      "type": "error"
    },
    {
      "anonymous": false,
      "inputs": [
        {
          "indexed": false,
          "internalType": "uint64",
          "name": "version",
          "type": "uint64"
        }
      ],
      "name": "Initialized",
      "type": "event"
    },
    {
      "anonymous": false,
      "inputs": [
        {
          "indexed": false,
          "internalType": "address",
          "name": "from",
          "type": "address"
        },
        {
          "indexed": false,
          "internalType": "string",
          "name": "targetTariAddress",
          "type": "string"
        },
        {
          "indexed": false,
          "internalType": "uint256",
          "name": "amount",
          "type": "uint256"
        },
        {
          "indexed": false,
          "internalType": "uint256",
          "name": "nonce",
          "type": "uint256"
        }
      ],
      "name": "TokensUnwrapped",
      "type": "event"
    },
    {
      "inputs": [
        {
          "internalType": "string",
          "name": "targetTariAddress",
          "type": "string"
        },
        {
          "internalType": "uint256",
          "name": "value",
          "type": "uint256"
        }
      ],
      "name": "bridgeToTari",
      "outputs": [],
      "stateMutability": "nonpayable",
      "type": "function"
    },
    {
      "inputs": [
        {
          "internalType": "string",
          "name": "targetTariAddress",
          "type": "string"
        },
        {
          "internalType": "uint256",
          "name": "value",
          "type": "uint256"
        },
        {
          "internalType": "uint256",
          "name": "validAfter",
          "type": "uint256"
        },
        {
          "internalType": "uint256",
          "name": "validBefore",
          "type": "uint256"
        },
        {
          "internalType": "bytes32",
          "name": "authNonce",
          "type": "bytes32"
        },
        {
          "internalType": "uint8",
          "name": "v",
          "type": "uint8"
        },
        {
          "internalType": "bytes32",
          "name": "r",
          "type": "bytes32"
        },
        {
          "internalType": "bytes32",
          "name": "s",
          "type": "bytes32"
        }
      ],
      "name": "bridgeToTariWithAuthorization",
      "outputs": [],
      "stateMutability": "nonpayable",
      "type": "function"
    },
    {
      "inputs": [
        {
          "internalType": "address",
          "name": "_wXTM",
          "type": "address"
        }
      ],
      "name": "initialize",
      "outputs": [],
      "stateMutability": "nonpayable",
      "type": "function"
    }
  ],
  "transactionHash": "0x6779410f83c73eb38fc1ab14e26674efd166071576ddf6b479c093bc232732ca",
  "args": [],
  "numDeployments": 5,
  "solcInputHash": "309d94966b1d8773c6d855a8305dd68c",
  "bytecode": "0x608060405234801561001057600080fd5b5061001961001e565b6100d0565b7ff0c57e16840df040f15088dc2f81fe391c3923bec73e23a9662efc9c229c6a00805468010000000000000000900460ff161561006e5760405163f92ee8a960e01b815260040160405180910390fd5b80546001600160401b03908116146100cd5780546001600160401b0319166001600160401b0390811782556040519081527fc7f505b2f371ae2175ee4913f4499e1f2633a7b5936321eed1cdaeb6115181d29060200160405180910390a15b50565b61075e806100df6000396000f3fe608060405234801561001057600080fd5b50600436106100415760003560e01c806361d1e52e14610046578063c4d66de81461005b578063ea723be21461006e575b600080fd5b61005961005436600461058f565b610081565b005b6100596100693660046105d4565b610178565b61005961007c366004610604565b61029a565b683635c9adc5dea000008110156100ab57604051632ca2f52b60e11b815260040160405180910390fd5b6001546100c3906001600160a01b0316333084610417565b600154604051630852cd8d60e31b8152600481018390526001600160a01b03909116906342966c6890602401600060405180830381600087803b15801561010957600080fd5b505af115801561011d573d6000803e3d6000fd5b505050507f5ff87d8bf325543ac6afbc59d3cc5c86988001c15f0001d30687f28d2f18e95e3383836000546040516101589493929190610694565b60405180910390a160008054908061016f83610701565b91905055505050565b7ff0c57e16840df040f15088dc2f81fe391c3923bec73e23a9662efc9c229c6a008054600160401b810460ff16159067ffffffffffffffff166000811580156101be5750825b905060008267ffffffffffffffff1660011480156101db5750303b155b9050811580156101e9575080155b156102075760405163f92ee8a960e01b815260040160405180910390fd5b845467ffffffffffffffff19166001178555831561023157845460ff60401b1916600160401b1785555b600180546001600160a01b0319166001600160a01b038816179055831561029257845460ff60401b19168555604051600181527fc7f505b2f371ae2175ee4913f4499e1f2633a7b5936321eed1cdaeb6115181d29060200160405180910390a15b505050505050565b683635c9adc5dea000008710156102c457604051632ca2f52b60e11b815260040160405180910390fd5b6001546040516377aadf6360e11b815233600482015230602482015260448101899052606481018890526084810187905260a4810186905260ff851660c482015260e4810184905261010481018390526001600160a01b039091169063ef55bec69061012401600060405180830381600087803b15801561034457600080fd5b505af1158015610358573d6000803e3d6000fd5b5050600154604051630852cd8d60e31b8152600481018b90526001600160a01b0390911692506342966c689150602401600060405180830381600087803b1580156103a257600080fd5b505af11580156103b6573d6000803e3d6000fd5b505050507f5ff87d8bf325543ac6afbc59d3cc5c86988001c15f0001d30687f28d2f18e95e3389896000546040516103f19493929190610694565b60405180910390a160008054908061040883610701565b91905055505050505050505050565b604080516001600160a01b0385811660248301528416604482015260648082018490528251808303909101815260849091019091526020810180516001600160e01b03166323b872dd60e01b179052610471908590610477565b50505050565b600080602060008451602086016000885af18061049a576040513d6000823e3d81fd5b50506000513d915081156104b25780600114156104bf565b6001600160a01b0384163b155b1561047157604051635274afe760e01b81526001600160a01b038516600482015260240160405180910390fd5b634e487b7160e01b600052604160045260246000fd5b600082601f83011261051357600080fd5b813567ffffffffffffffff8082111561052e5761052e6104ec565b604051601f8301601f19908116603f01168101908282118183101715610556576105566104ec565b8160405283815286602085880101111561056f57600080fd5b836020870160208301376000602085830101528094505050505092915050565b600080604083850312156105a257600080fd5b823567ffffffffffffffff8111156105b957600080fd5b6105c585828601610502565b95602094909401359450505050565b6000602082840312156105e657600080fd5b81356001600160a01b03811681146105fd57600080fd5b9392505050565b600080600080600080600080610100898b03121561062157600080fd5b883567ffffffffffffffff81111561063857600080fd5b6106448b828c01610502565b9850506020890135965060408901359550606089013594506080890135935060a089013560ff8116811461067757600080fd5b979a969950949793969295929450505060c08201359160e0013590565b60018060a01b03851681526000602060806020840152855180608085015260005b818110156106d15787810183015185820160a0015282016106b5565b50600060a0828601015260a0601f19601f8301168501019250505083604083015282606083015295945050505050565b60006001820161072157634e487b7160e01b600052601160045260246000fd5b506001019056fea2646970667358221220994e74fca77da0b9ba2bf523f8250385a2093ebf8ff08bf4b8a1761c9c29236264736f6c63430008160033",
  "devdoc": {
    "errors": {
      "InvalidInitialization()": [
        {
          "details": "The contract is already initialized."
        }
      ],
      "NotInitializing()": [
        {
          "details": "The contract is not initializing."
        }
      ],
      "SafeERC20FailedOperation(address)": [
        {
          "details": "An operation with an ERC-20 token failed."
        }
      ]
    },
    "events": {
      "Initialized(uint64)": {
        "details": "Triggered when the contract has been initialized or reinitialized."
      }
    },
    "kind": "dev",
    "methods": {},
    "version": 1
  },
  "userdoc": {
    "kind": "user",
    "methods": {},
    "version": 1
  },
  "storageLayout": {
    "storage": [
      {
        "astId": 898,
        "contract": "contracts/wXTMBridge.sol:wXTMBridge",
        "label": "nonce",
        "offset": 0,
        "slot": "0",
        "type": "t_uint256"
      },
      {
        "astId": 900,
        "contract": "contracts/wXTMBridge.sol:wXTMBridge",
        "label": "wXTM",
        "offset": 0,
        "slot": "1",
        "type": "t_address"
      }
    ],
    "types": {
      "t_address": {
        "encoding": "inplace",
        "label": "address",
        "numberOfBytes": "20"
      },
      "t_uint256": {
        "encoding": "inplace",
        "label": "uint256",
        "numberOfBytes": "32"
      }
    }
  }
}