{
  "address": "0xCdb50115F33969d68E1B070808D60f4D9BF69816",
  "abi": [
    {
      "inputs": [
        {
          "internalType": "address",
          "name": "_wXTM",
          "type": "address"
        }
      ],
      "stateMutability": "nonpayable",
      "type": "constructor"
    },
    {
      "inputs": [
        {
          "internalType": "address",
          "name": "token",
          "type": "address"
        }
      ],
      "name": "SafeERC20FailedOperation",
      "type": "error"
    },
    {
      "anonymous": false,
      "inputs": [
        {
          "indexed": false,
          "internalType": "address",
          "name": "from",
          "type": "address"
        },
        {
          "indexed": false,
          "internalType": "string",
          "name": "targetTariAddress",
          "type": "string"
        },
        {
          "indexed": false,
          "internalType": "uint256",
          "name": "amount",
          "type": "uint256"
        },
        {
          "indexed": false,
          "internalType": "uint256",
          "name": "nonce",
          "type": "uint256"
        }
      ],
      "name": "TokensUnwrapped",
      "type": "event"
    },
    {
      "inputs": [
        {
          "internalType": "string",
          "name": "targetTariAddress",
          "type": "string"
        },
        {
          "internalType": "uint256",
          "name": "value",
          "type": "uint256"
        }
      ],
      "name": "bridgeToTari",
      "outputs": [],
      "stateMutability": "nonpayable",
      "type": "function"
    },
    {
      "inputs": [
        {
          "internalType": "string",
          "name": "targetTariAddress",
          "type": "string"
        },
        {
          "internalType": "uint256",
          "name": "value",
          "type": "uint256"
        },
        {
          "internalType": "uint256",
          "name": "validAfter",
          "type": "uint256"
        },
        {
          "internalType": "uint256",
          "name": "validBefore",
          "type": "uint256"
        },
        {
          "internalType": "bytes32",
          "name": "authNonce",
          "type": "bytes32"
        },
        {
          "internalType": "uint8",
          "name": "v",
          "type": "uint8"
        },
        {
          "internalType": "bytes32",
          "name": "r",
          "type": "bytes32"
        },
        {
          "internalType": "bytes32",
          "name": "s",
          "type": "bytes32"
        }
      ],
      "name": "bridgeToTariWithAuthorization",
      "outputs": [],
      "stateMutability": "nonpayable",
      "type": "function"
    }
  ],
  "transactionHash": "0xd873cd0c94dea5215e36ed74af9350187fb27c9b4e9e4762a129d04168996017",
  "args": [
    "0xcBe79AB990E0Ab45Cb9148db7d434477E49b7374"
  ],
  "numDeployments": 4,
  "solcInputHash": "bf05e3cdfbccf31f8978205e9c2174de",
  "bytecode": "0x60a060405234801561001057600080fd5b506040516106a93803806106a983398101604081905261002f91610040565b6001600160a01b0316608052610070565b60006020828403121561005257600080fd5b81516001600160a01b038116811461006957600080fd5b9392505050565b60805161060b61009e6000396000818160700152818160ae015281816101b80152610231015261060b6000f3fe608060405234801561001057600080fd5b50600436106100365760003560e01c806361d1e52e1461003b578063ea723be214610050575b600080fd5b61004e61004936600461046c565b610063565b005b61004e61005e3660046104b1565b610169565b6100986001600160a01b037f0000000000000000000000000000000000000000000000000000000000000000163330846102f4565b604051630852cd8d60e31b8152600481018290527f00000000000000000000000000000000000000000000000000000000000000006001600160a01b0316906342966c6890602401600060405180830381600087803b1580156100fa57600080fd5b505af115801561010e573d6000803e3d6000fd5b505050507f5ff87d8bf325543ac6afbc59d3cc5c86988001c15f0001d30687f28d2f18e95e3383836000546040516101499493929190610541565b60405180910390a1600080549080610160836105ae565b91905055505050565b6040516377aadf6360e11b815233600482015230602482015260448101889052606481018790526084810186905260a4810185905260ff841660c482015260e4810183905261010481018290527f00000000000000000000000000000000000000000000000000000000000000006001600160a01b03169063ef55bec69061012401600060405180830381600087803b15801561020557600080fd5b505af1158015610219573d6000803e3d6000fd5b5050604051630852cd8d60e31b8152600481018a90527f00000000000000000000000000000000000000000000000000000000000000006001600160a01b031692506342966c689150602401600060405180830381600087803b15801561027f57600080fd5b505af1158015610293573d6000803e3d6000fd5b505050507f5ff87d8bf325543ac6afbc59d3cc5c86988001c15f0001d30687f28d2f18e95e3389896000546040516102ce9493929190610541565b60405180910390a16000805490806102e5836105ae565b91905055505050505050505050565b604080516001600160a01b0385811660248301528416604482015260648082018490528251808303909101815260849091019091526020810180516001600160e01b03166323b872dd60e01b17905261034e908590610354565b50505050565b600080602060008451602086016000885af180610377576040513d6000823e3d81fd5b50506000513d9150811561038f57806001141561039c565b6001600160a01b0384163b155b1561034e57604051635274afe760e01b81526001600160a01b038516600482015260240160405180910390fd5b634e487b7160e01b600052604160045260246000fd5b600082601f8301126103f057600080fd5b813567ffffffffffffffff8082111561040b5761040b6103c9565b604051601f8301601f19908116603f01168101908282118183101715610433576104336103c9565b8160405283815286602085880101111561044c57600080fd5b836020870160208301376000602085830101528094505050505092915050565b6000806040838503121561047f57600080fd5b823567ffffffffffffffff81111561049657600080fd5b6104a2858286016103df565b95602094909401359450505050565b600080600080600080600080610100898b0312156104ce57600080fd5b883567ffffffffffffffff8111156104e557600080fd5b6104f18b828c016103df565b9850506020890135965060408901359550606089013594506080890135935060a089013560ff8116811461052457600080fd5b979a969950949793969295929450505060c08201359160e0013590565b60018060a01b03851681526000602060806020840152855180608085015260005b8181101561057e5787810183015185820160a001528201610562565b50600060a0828601015260a0601f19601f8301168501019250505083604083015282606083015295945050505050565b6000600182016105ce57634e487b7160e01b600052601160045260246000fd5b506001019056fea2646970667358221220e693ed218c64cf3c5826a149f8d36e4bfedb2b2070a875afbc384a31e0e2c21c64736f6c63430008160033",
  "devdoc": {
    "errors": {
      "SafeERC20FailedOperation(address)": [
        {
          "details": "An operation with an ERC-20 token failed."
        }
      ]
    },
    "kind": "dev",
    "methods": {},
    "version": 1
  },
  "userdoc": {
    "kind": "user",
    "methods": {},
    "version": 1
  },
  "storageLayout": {
    "storage": [
      {
        "astId": 13088,
        "contract": "contracts/wXTMBridge.sol:wXTMBridge",
        "label": "nonce",
        "offset": 0,
        "slot": "0",
        "type": "t_uint256"
      }
    ],
    "types": {
      "t_uint256": {
        "encoding": "inplace",
        "label": "uint256",
        "numberOfBytes": "32"
      }
    }
  }
}